{
  "_format": "hh-sol-artifact-1",
  "contractName": "Ticketing",
  "sourceName": "contracts/Ticketing.sol",
  "abi": [
    {
      "inputs": [
        {
          "internalType": "uint256",
          "name": "maxPrice",
          "type": "uint256"
        },
        {
          "internalType": "uint256",
          "name": "maxTicketCount",
          "type": "uint256"
        },
        {
          "internalType": "uint256",
          "name": "price",
          "type": "uint256"
        },
        {
          "internalType": "uint256",
          "name": "resaleCut",
          "type": "uint256"
        }
      ],
      "stateMutability": "nonpayable",
      "type": "constructor"
    },
    {
      "anonymous": false,
      "inputs": [
        {
          "indexed": true,
          "internalType": "address",
          "name": "owner",
          "type": "address"
        },
        {
          "indexed": true,
          "internalType": "address",
          "name": "approved",
          "type": "address"
        },
        {
          "indexed": true,
          "internalType": "uint256",
          "name": "tokenId",
          "type": "uint256"
        }
      ],
      "name": "Approval",
      "type": "event"
    },
    {
      "anonymous": false,
      "inputs": [
        {
          "indexed": true,
          "internalType": "address",
          "name": "owner",
          "type": "address"
        },
        {
          "indexed": true,
          "internalType": "address",
          "name": "operator",
          "type": "address"
        },
        {
          "indexed": false,
          "internalType": "bool",
          "name": "approved",
          "type": "bool"
        }
      ],
      "name": "ApprovalForAll",
      "type": "event"
    },
    {
      "anonymous": false,
      "inputs": [
        {
          "indexed": false,
          "internalType": "address",
          "name": "account",
          "type": "address"
        }
      ],
      "name": "Paused",
      "type": "event"
    },
    {
      "anonymous": false,
      "inputs": [
        {
          "indexed": false,
          "internalType": "uint256",
          "name": "_ticketId",
          "type": "uint256"
        }
      ],
      "name": "TicketOffSale",
      "type": "event"
    },
    {
      "anonymous": false,
      "inputs": [
        {
          "indexed": false,
          "internalType": "address",
          "name": "_by",
          "type": "address"
        },
        {
          "indexed": false,
          "internalType": "uint256",
          "name": "_ticketId",
          "type": "uint256"
        },
        {
          "indexed": false,
          "internalType": "uint256",
          "name": "_price",
          "type": "uint256"
        }
      ],
      "name": "TicketOnSale",
      "type": "event"
    },
    {
      "anonymous": false,
      "inputs": [
        {
          "indexed": true,
          "internalType": "address",
          "name": "from",
          "type": "address"
        },
        {
          "indexed": true,
          "internalType": "address",
          "name": "to",
          "type": "address"
        },
        {
          "indexed": true,
          "internalType": "uint256",
          "name": "tokenId",
          "type": "uint256"
        }
      ],
      "name": "Transfer",
      "type": "event"
    },
    {
      "anonymous": false,
      "inputs": [
        {
          "indexed": false,
          "internalType": "address",
          "name": "account",
          "type": "address"
        }
      ],
      "name": "Unpaused",
      "type": "event"
    },
    {
      "inputs": [],
      "name": "_initialPrice",
      "outputs": [
        {
          "internalType": "uint256",
          "name": "",
          "type": "uint256"
        }
      ],
      "stateMutability": "view",
      "type": "function"
    },
    {
      "inputs": [],
      "name": "_maxTicketCount",
      "outputs": [
        {
          "internalType": "uint256",
          "name": "",
          "type": "uint256"
        }
      ],
      "stateMutability": "view",
      "type": "function"
    },
    {
      "inputs": [],
      "name": "_maxTransferPrice",
      "outputs": [
        {
          "internalType": "uint256",
          "name": "",
          "type": "uint256"
        }
      ],
      "stateMutability": "view",
      "type": "function"
    },
    {
      "inputs": [],
      "name": "_resaleCut",
      "outputs": [
        {
          "internalType": "uint256",
          "name": "",
          "type": "uint256"
        }
      ],
      "stateMutability": "view",
      "type": "function"
    },
    {
      "inputs": [
        {
          "internalType": "uint256",
          "name": "",
          "type": "uint256"
        }
      ],
      "name": "_tickets",
      "outputs": [
        {
          "internalType": "uint256",
          "name": "_ticketId",
          "type": "uint256"
        },
        {
          "internalType": "uint256",
          "name": "_price",
          "type": "uint256"
        },
        {
          "internalType": "bool",
          "name": "_onSale",
          "type": "bool"
        }
      ],
      "stateMutability": "view",
      "type": "function"
    },
    {
      "inputs": [],
      "name": "_tokenIds",
      "outputs": [
        {
          "internalType": "uint256",
          "name": "_value",
          "type": "uint256"
        }
      ],
      "stateMutability": "view",
      "type": "function"
    },
    {
      "inputs": [
        {
          "internalType": "address",
          "name": "to",
          "type": "address"
        },
        {
          "internalType": "uint256",
          "name": "tokenId",
          "type": "uint256"
        }
      ],
      "name": "approve",
      "outputs": [],
      "stateMutability": "nonpayable",
      "type": "function"
    },
    {
      "inputs": [
        {
          "internalType": "address",
          "name": "owner",
          "type": "address"
        }
      ],
      "name": "balanceOf",
      "outputs": [
        {
          "internalType": "uint256",
          "name": "",
          "type": "uint256"
        }
      ],
      "stateMutability": "view",
      "type": "function"
    },
    {
      "inputs": [
        {
          "internalType": "uint256",
          "name": "ticketId",
          "type": "uint256"
        }
      ],
      "name": "buyOnSaleTicket",
      "outputs": [],
      "stateMutability": "payable",
      "type": "function"
    },
    {
      "inputs": [
        {
          "internalType": "address",
          "name": "buyer",
          "type": "address"
        }
      ],
      "name": "buyTicketFromOrganizer",
      "outputs": [
        {
          "internalType": "uint256",
          "name": "",
          "type": "uint256"
        }
      ],
      "stateMutability": "payable",
      "type": "function"
    },
    {
      "inputs": [
        {
          "internalType": "uint256",
          "name": "ticketId",
          "type": "uint256"
        }
      ],
      "name": "cancelSale",
      "outputs": [],
      "stateMutability": "nonpayable",
      "type": "function"
    },
    {
      "inputs": [
        {
          "internalType": "uint256",
          "name": "tokenId",
          "type": "uint256"
        }
      ],
      "name": "getApproved",
      "outputs": [
        {
          "internalType": "address",
          "name": "",
          "type": "address"
        }
      ],
      "stateMutability": "view",
      "type": "function"
    },
    {
      "inputs": [],
      "name": "getMapping",
      "outputs": [
        {
          "internalType": "address[]",
          "name": "",
          "type": "address[]"
        }
      ],
      "stateMutability": "view",
      "type": "function"
    },
    {
      "inputs": [
        {
          "internalType": "address",
          "name": "owner",
          "type": "address"
        }
      ],
      "name": "getOwnedTicket",
      "outputs": [
        {
          "components": [
            {
              "internalType": "uint256",
              "name": "_ticketId",
              "type": "uint256"
            },
            {
              "internalType": "uint256",
              "name": "_price",
              "type": "uint256"
            },
            {
              "internalType": "bool",
              "name": "_onSale",
              "type": "bool"
            }
          ],
          "internalType": "struct Ticketing.Ticket[]",
          "name": "",
          "type": "tuple[]"
        }
      ],
      "stateMutability": "view",
      "type": "function"
    },
    {
      "inputs": [
        {
          "internalType": "uint256",
          "name": "ticketId",
          "type": "uint256"
        }
      ],
      "name": "getTicket",
      "outputs": [
        {
          "internalType": "uint256",
          "name": "",
          "type": "uint256"
        },
        {
          "internalType": "uint256",
          "name": "",
          "type": "uint256"
        },
        {
          "internalType": "bool",
          "name": "",
          "type": "bool"
        }
      ],
      "stateMutability": "view",
      "type": "function"
    },
    {
      "inputs": [
        {
          "internalType": "address",
          "name": "owner",
          "type": "address"
        },
        {
          "internalType": "address",
          "name": "operator",
          "type": "address"
        }
      ],
      "name": "isApprovedForAll",
      "outputs": [
        {
          "internalType": "bool",
          "name": "",
          "type": "bool"
        }
      ],
      "stateMutability": "view",
      "type": "function"
    },
    {
      "inputs": [],
      "name": "name",
      "outputs": [
        {
          "internalType": "string",
          "name": "",
          "type": "string"
        }
      ],
      "stateMutability": "view",
      "type": "function"
    },
    {
      "inputs": [
        {
          "internalType": "uint256",
          "name": "tokenId",
          "type": "uint256"
        }
      ],
      "name": "ownerOf",
      "outputs": [
        {
          "internalType": "address",
          "name": "",
          "type": "address"
        }
      ],
      "stateMutability": "view",
      "type": "function"
    },
    {
      "inputs": [],
      "name": "pause",
      "outputs": [],
      "stateMutability": "nonpayable",
      "type": "function"
    },
    {
      "inputs": [],
      "name": "paused",
      "outputs": [
        {
          "internalType": "bool",
          "name": "",
          "type": "bool"
        }
      ],
      "stateMutability": "view",
      "type": "function"
    },
    {
      "inputs": [
        {
          "internalType": "address",
          "name": "from",
          "type": "address"
        },
        {
          "internalType": "address",
          "name": "to",
          "type": "address"
        },
        {
          "internalType": "uint256",
          "name": "tokenId",
          "type": "uint256"
        }
      ],
      "name": "safeTransferFrom",
      "outputs": [],
      "stateMutability": "nonpayable",
      "type": "function"
    },
    {
      "inputs": [
        {
          "internalType": "address",
          "name": "from",
          "type": "address"
        },
        {
          "internalType": "address",
          "name": "to",
          "type": "address"
        },
        {
          "internalType": "uint256",
          "name": "tokenId",
          "type": "uint256"
        },
        {
          "internalType": "bytes",
          "name": "data",
          "type": "bytes"
        }
      ],
      "name": "safeTransferFrom",
      "outputs": [],
      "stateMutability": "nonpayable",
      "type": "function"
    },
    {
      "inputs": [
        {
          "internalType": "uint256",
          "name": "ticketId",
          "type": "uint256"
        },
        {
          "internalType": "uint256",
          "name": "price",
          "type": "uint256"
        }
      ],
      "name": "sellTicket",
      "outputs": [],
      "stateMutability": "nonpayable",
      "type": "function"
    },
    {
      "inputs": [
        {
          "internalType": "address",
          "name": "operator",
          "type": "address"
        },
        {
          "internalType": "bool",
          "name": "approved",
          "type": "bool"
        }
      ],
      "name": "setApprovalForAll",
      "outputs": [],
      "stateMutability": "nonpayable",
      "type": "function"
    },
    {
      "inputs": [
        {
          "internalType": "bytes4",
          "name": "interfaceId",
          "type": "bytes4"
        }
      ],
      "name": "supportsInterface",
      "outputs": [
        {
          "internalType": "bool",
          "name": "",
          "type": "bool"
        }
      ],
      "stateMutability": "view",
      "type": "function"
    },
    {
      "inputs": [],
      "name": "symbol",
      "outputs": [
        {
          "internalType": "string",
          "name": "",
          "type": "string"
        }
      ],
      "stateMutability": "view",
      "type": "function"
    },
    {
      "inputs": [
        {
          "internalType": "uint256",
          "name": "index",
          "type": "uint256"
        }
      ],
      "name": "tokenByIndex",
      "outputs": [
        {
          "internalType": "uint256",
          "name": "",
          "type": "uint256"
        }
      ],
      "stateMutability": "view",
      "type": "function"
    },
    {
      "inputs": [
        {
          "internalType": "address",
          "name": "owner",
          "type": "address"
        },
        {
          "internalType": "uint256",
          "name": "index",
          "type": "uint256"
        }
      ],
      "name": "tokenOfOwnerByIndex",
      "outputs": [
        {
          "internalType": "uint256",
          "name": "",
          "type": "uint256"
        }
      ],
      "stateMutability": "view",
      "type": "function"
    },
    {
      "inputs": [
        {
          "internalType": "uint256",
          "name": "tokenId",
          "type": "uint256"
        }
      ],
      "name": "tokenURI",
      "outputs": [
        {
          "internalType": "string",
          "name": "",
          "type": "string"
        }
      ],
      "stateMutability": "view",
      "type": "function"
    },
    {
      "inputs": [],
      "name": "totalSupply",
      "outputs": [
        {
          "internalType": "uint256",
          "name": "",
          "type": "uint256"
        }
      ],
      "stateMutability": "view",
      "type": "function"
    },
    {
      "inputs": [
        {
          "internalType": "address",
          "name": "from",
          "type": "address"
        },
        {
          "internalType": "address",
          "name": "to",
          "type": "address"
        },
        {
          "internalType": "uint256",
          "name": "tokenId",
          "type": "uint256"
        }
      ],
      "name": "transferFrom",
      "outputs": [],
      "stateMutability": "nonpayable",
      "type": "function"
    },
    {
      "inputs": [
        {
          "internalType": "address payable",
          "name": "from",
          "type": "address"
        },
        {
          "internalType": "address",
          "name": "to",
          "type": "address"
        },
        {
          "internalType": "uint256",
          "name": "tokenId",
          "type": "uint256"
        }
      ],
      "name": "transferTicket",
      "outputs": [],
      "stateMutability": "payable",
      "type": "function"
    },
    {
      "inputs": [],
      "name": "unpause",
      "outputs": [],
      "stateMutability": "nonpayable",
      "type": "function"
    }
  ],
  "bytecode": "0x60806040523480156200001157600080fd5b5060405162004cad38038062004cad8339818101604052810190620000379190620001e0565b6040518060400160405280600681526020017f5469636b657400000000000000000000000000000000000000000000000000008152506040518060400160405280600281526020017f546b0000000000000000000000000000000000000000000000000000000000008152508160009081620000b49190620004c2565b508060019081620000c69190620004c2565b5050506000600a60006101000a81548160ff02191690831515021790555060008110158015620000f7575060648111155b62000139576040517f08c379a0000000000000000000000000000000000000000000000000000000008152600401620001309062000630565b60405180910390fd5b33600c60006101000a81548173ffffffffffffffffffffffffffffffffffffffff021916908373ffffffffffffffffffffffffffffffffffffffff16021790555083600d8190555082600e8190555081600f81905550806010819055505050505062000652565b600080fd5b6000819050919050565b620001ba81620001a5565b8114620001c657600080fd5b50565b600081519050620001da81620001af565b92915050565b60008060008060808587031215620001fd57620001fc620001a0565b5b60006200020d87828801620001c9565b94505060206200022087828801620001c9565b93505060406200023387828801620001c9565b92505060606200024687828801620001c9565b91505092959194509250565b600081519050919050565b7f4e487b7100000000000000000000000000000000000000000000000000000000600052604160045260246000fd5b7f4e487b7100000000000000000000000000000000000000000000000000000000600052602260045260246000fd5b60006002820490506001821680620002d457607f821691505b602082108103620002ea57620002e96200028c565b5b50919050565b60008190508160005260206000209050919050565b60006020601f8301049050919050565b600082821b905092915050565b600060088302620003547fffffffffffffffffffffffffffffffffffffffffffffffffffffffffffffffff8262000315565b62000360868362000315565b95508019841693508086168417925050509392505050565b6000819050919050565b6000620003a36200039d6200039784620001a5565b62000378565b620001a5565b9050919050565b6000819050919050565b620003bf8362000382565b620003d7620003ce82620003aa565b84845462000322565b825550505050565b600090565b620003ee620003df565b620003fb818484620003b4565b505050565b5b81811015620004235762000417600082620003e4565b60018101905062000401565b5050565b601f82111562000472576200043c81620002f0565b620004478462000305565b8101602085101562000457578190505b6200046f620004668562000305565b83018262000400565b50505b505050565b600082821c905092915050565b6000620004976000198460080262000477565b1980831691505092915050565b6000620004b2838362000484565b9150826002028217905092915050565b620004cd8262000252565b67ffffffffffffffff811115620004e957620004e86200025d565b5b620004f58254620002bb565b6200050282828562000427565b600060209050601f8311600181146200053a576000841562000525578287015190505b620005318582620004a4565b865550620005a1565b601f1984166200054a86620002f0565b60005b8281101562000574578489015182556001820191506020850194506020810190506200054d565b8683101562000594578489015162000590601f89168262000484565b8355505b6001600288020188555050505b505050505050565b600082825260208201905092915050565b7f496e76616c696420726573616c65206375742076616c75652c206d757374206260008201527f65206265747765656e20302d31303020696e636c757369766500000000000000602082015250565b600062000618603983620005a9565b91506200062582620005ba565b604082019050919050565b600060208201905081810360008301526200064b8162000609565b9050919050565b61464b80620006626000396000f3fe6080604052600436106101ee5760003560e01c80636352211e1161010d578063a22cb465116100a0578063c87b56dd1161006f578063c87b56dd146106ec578063d5e350e314610729578063e287e7e414610754578063e985e9c51461077f578063fef77dfc146107bc576101ee565b8063a22cb46514610646578063aa46a4001461066f578063b88d4fde1461069a578063bd94b005146106c3576101ee565b80637ab36b53116100dc5780637ab36b531461059a5780637dc379fa146105c55780638456cb591461060457806395d89b411461061b576101ee565b80636352211e146104b657806370a08231146104f3578063731eedaf1461053057806378a2db881461055b576101ee565b80632f745c591161018557806345b0a3f11161015457806345b0a3f1146103f35780634f6ccce71461041e5780635a1d29391461045b5780635c975abb1461048b576101ee565b80632f745c591461035a5780633a8d0926146103975780633f4ba83a146103b357806342842e0e146103ca576101ee565b8063095ea7b3116101c1578063095ea7b3146102b457806318160ddd146102dd57806323b872dd146103085780632a6c4c1414610331576101ee565b806301367e6a146101f357806301ffc9a71461020f57806306fdde031461024c578063081812fc14610277575b600080fd5b61020d60048036038101906102089190612f8f565b6107f9565b005b34801561021b57600080fd5b506102366004803603810190610231919061303a565b610abe565b6040516102439190613082565b60405180910390f35b34801561025857600080fd5b50610261610b38565b60405161026e919061312d565b60405180910390f35b34801561028357600080fd5b5061029e6004803603810190610299919061314f565b610bca565b6040516102ab919061318b565b60405180910390f35b3480156102c057600080fd5b506102db60048036038101906102d691906131a6565b610c10565b005b3480156102e957600080fd5b506102f2610d27565b6040516102ff91906131f5565b60405180910390f35b34801561031457600080fd5b5061032f600480360381019061032a9190613210565b610d34565b005b34801561033d57600080fd5b5061035860048036038101906103539190613263565b610d94565b005b34801561036657600080fd5b50610381600480360381019061037c91906131a6565b610e9a565b60405161038e91906131f5565b60405180910390f35b6103b160048036038101906103ac919061314f565b610f3f565b005b3480156103bf57600080fd5b506103c8610fd7565b005b3480156103d657600080fd5b506103f160048036038101906103ec9190613210565b61103b565b005b3480156103ff57600080fd5b5061040861105b565b60405161041591906131f5565b60405180910390f35b34801561042a57600080fd5b506104456004803603810190610440919061314f565b611061565b60405161045291906131f5565b60405180910390f35b610475600480360381019061047091906132a3565b6110d2565b60405161048291906131f5565b60405180910390f35b34801561049757600080fd5b506104a06112bb565b6040516104ad9190613082565b60405180910390f35b3480156104c257600080fd5b506104dd60048036038101906104d8919061314f565b6112d2565b6040516104ea919061318b565b60405180910390f35b3480156104ff57600080fd5b5061051a600480360381019061051591906132a3565b611358565b60405161052791906131f5565b60405180910390f35b34801561053c57600080fd5b5061054561140f565b60405161055291906131f5565b60405180910390f35b34801561056757600080fd5b50610582600480360381019061057d919061314f565b611415565b604051610591939291906132d0565b60405180910390f35b3480156105a657600080fd5b506105af61145c565b6040516105bc91906131f5565b60405180910390f35b3480156105d157600080fd5b506105ec60048036038101906105e7919061314f565b611462565b6040516105fb939291906132d0565b60405180910390f35b34801561061057600080fd5b506106196114f3565b005b34801561062757600080fd5b50610630611557565b60405161063d919061312d565b60405180910390f35b34801561065257600080fd5b5061066d60048036038101906106689190613333565b6115e9565b005b34801561067b57600080fd5b506106846115ff565b60405161069191906131f5565b60405180910390f35b3480156106a657600080fd5b506106c160048036038101906106bc91906134a8565b61160b565b005b3480156106cf57600080fd5b506106ea60048036038101906106e5919061314f565b61166d565b005b3480156106f857600080fd5b50610713600480360381019061070e919061314f565b61176e565b604051610720919061312d565b60405180910390f35b34801561073557600080fd5b5061073e6117d6565b60405161074b91906135e9565b60405180910390f35b34801561076057600080fd5b506107696118bb565b60405161077691906131f5565b60405180910390f35b34801561078b57600080fd5b506107a660048036038101906107a1919061360b565b6118c1565b6040516107b39190613082565b60405180910390f35b3480156107c857600080fd5b506107e360048036038101906107de91906132a3565b611955565b6040516107f0919061375a565b60405180910390f35b610801611a6e565b8173ffffffffffffffffffffffffffffffffffffffff163373ffffffffffffffffffffffffffffffffffffffff161461083957600080fd5b600d5434111561087e576040517f08c379a0000000000000000000000000000000000000000000000000000000008152600401610875906137ee565b60405180910390fd5b3073ffffffffffffffffffffffffffffffffffffffff166323b872dd8484846040518463ffffffff1660e01b81526004016108bb9392919061386d565b600060405180830381600087803b1580156108d557600080fd5b505af11580156108e9573d6000803e3d6000fd5b5050505060006064601054346108ff91906138d3565b6109099190613944565b905060006064601054606461091e9190613975565b3461092991906138d3565b6109339190613944565b90506000808673ffffffffffffffffffffffffffffffffffffffff168360405161095c906139da565b60006040518083038185875af1925050503d8060008114610999576040519150601f19603f3d011682016040523d82523d6000602084013e61099e565b606091505b5091509150600080600c60009054906101000a900473ffffffffffffffffffffffffffffffffffffffff1673ffffffffffffffffffffffffffffffffffffffff16866040516109ec906139da565b60006040518083038185875af1925050503d8060008114610a29576040519150601f19603f3d011682016040523d82523d6000602084013e610a2e565b606091505b509150915083610a73576040517f08c379a0000000000000000000000000000000000000000000000000000000008152600401610a6a90613a3b565b60405180910390fd5b81610ab3576040517f08c379a0000000000000000000000000000000000000000000000000000000008152600401610aaa90613a3b565b60405180910390fd5b505050505050505050565b60007f780e9d63000000000000000000000000000000000000000000000000000000007bffffffffffffffffffffffffffffffffffffffffffffffffffffffff1916827bffffffffffffffffffffffffffffffffffffffffffffffffffffffff19161480610b315750610b3082611ab8565b5b9050919050565b606060008054610b4790613a8a565b80601f0160208091040260200160405190810160405280929190818152602001828054610b7390613a8a565b8015610bc05780601f10610b9557610100808354040283529160200191610bc0565b820191906000526020600020905b815481529060010190602001808311610ba357829003601f168201915b5050505050905090565b6000610bd582611b9a565b6004600083815260200190815260200160002060009054906101000a900473ffffffffffffffffffffffffffffffffffffffff169050919050565b6000610c1b826112d2565b90508073ffffffffffffffffffffffffffffffffffffffff168373ffffffffffffffffffffffffffffffffffffffff1603610c8b576040517f08c379a0000000000000000000000000000000000000000000000000000000008152600401610c8290613b2d565b60405180910390fd5b8073ffffffffffffffffffffffffffffffffffffffff16610caa611be5565b73ffffffffffffffffffffffffffffffffffffffff161480610cd95750610cd881610cd3611be5565b6118c1565b5b610d18576040517f08c379a0000000000000000000000000000000000000000000000000000000008152600401610d0f90613bbf565b60405180910390fd5b610d228383611bed565b505050565b6000600880549050905090565b610d45610d3f611be5565b82611ca6565b610d84576040517f08c379a0000000000000000000000000000000000000000000000000000000008152600401610d7b90613c51565b60405180910390fd5b610d8f838383611d3b565b505050565b610d9c611a6e565b600d54811115610de1576040517f08c379a0000000000000000000000000000000000000000000000000000000008152600401610dd8906137ee565b60405180910390fd5b600160118381548110610df757610df6613c71565b5b906000526020600020906003020160020160006101000a81548160ff0219169083151502179055508060118381548110610e3457610e33613c71565b5b906000526020600020906003020160010181905550610e533083610c10565b7fab7c33ed6b76f0cc8ab554d58c5f2029850ebcdab11f7a23c327f43320b4eb4c610e7d836112d2565b8383604051610e8e93929190613ca0565b60405180910390a15050565b6000610ea583611358565b8210610ee6576040517f08c379a0000000000000000000000000000000000000000000000000000000008152600401610edd90613d49565b60405180910390fd5b600660008473ffffffffffffffffffffffffffffffffffffffff1673ffffffffffffffffffffffffffffffffffffffff168152602001908152602001600020600083815260200190815260200160002054905092915050565b610f47611a6e565b60118181548110610f5b57610f5a613c71565b5b906000526020600020906003020160020160009054906101000a900460ff16610f8357600080fd5b610f96610f8f826112d2565b33836107f9565b600060118281548110610fac57610fab613c71565b5b906000526020600020906003020160020160006101000a81548160ff02191690831515021790555050565b600c60009054906101000a900473ffffffffffffffffffffffffffffffffffffffff1673ffffffffffffffffffffffffffffffffffffffff163373ffffffffffffffffffffffffffffffffffffffff161461103157600080fd5b611039612034565b565b6110568383836040518060200160405280600081525061160b565b505050565b600d5481565b600061106b610d27565b82106110ac576040517f08c379a00000000000000000000000000000000000000000000000000000000081526004016110a390613ddb565b60405180910390fd5b600882815481106110c0576110bf613c71565b5b90600052602060002001549050919050565b60006110dc611a6e565b600f5434146110ea57600080fd5b600e546110f7600b612097565b10611137576040517f08c379a000000000000000000000000000000000000000000000000000000000815260040161112e90613e47565b60405180910390fd5b600080600c60009054906101000a900473ffffffffffffffffffffffffffffffffffffffff1673ffffffffffffffffffffffffffffffffffffffff1634604051611180906139da565b60006040518083038185875af1925050503d80600081146111bd576040519150601f19603f3d011682016040523d82523d6000602084013e6111c2565b606091505b509150915081611207576040517f08c379a00000000000000000000000000000000000000000000000000000000081526004016111fe90613a3b565b60405180910390fd5b6000611213600b612097565b905061121f85826120a5565b60006040518060600160405280838152602001600f5481526020016000151581525090506011819080600181540180825580915050600190039060005260206000209060030201600090919091909150600082015181600001556020820151816001015560408201518160020160006101000a81548160ff02191690831515021790555050506112af600b6122c2565b81945050505050919050565b6000600a60009054906101000a900460ff16905090565b6000806112de836122d8565b9050600073ffffffffffffffffffffffffffffffffffffffff168173ffffffffffffffffffffffffffffffffffffffff160361134f576040517f08c379a000000000000000000000000000000000000000000000000000000000815260040161134690613eb3565b60405180910390fd5b80915050919050565b60008073ffffffffffffffffffffffffffffffffffffffff168273ffffffffffffffffffffffffffffffffffffffff16036113c8576040517f08c379a00000000000000000000000000000000000000000000000000000000081526004016113bf90613f45565b60405180910390fd5b600360008373ffffffffffffffffffffffffffffffffffffffff1673ffffffffffffffffffffffffffffffffffffffff168152602001908152602001600020549050919050565b60105481565b6011818154811061142557600080fd5b90600052602060002090600302016000915090508060000154908060010154908060020160009054906101000a900460ff16905083565b600f5481565b60008060006011848154811061147b5761147a613c71565b5b906000526020600020906003020160000154601185815481106114a1576114a0613c71565b5b906000526020600020906003020160010154601186815481106114c7576114c6613c71565b5b906000526020600020906003020160020160009054906101000a900460ff169250925092509193909250565b600c60009054906101000a900473ffffffffffffffffffffffffffffffffffffffff1673ffffffffffffffffffffffffffffffffffffffff163373ffffffffffffffffffffffffffffffffffffffff161461154d57600080fd5b611555612315565b565b60606001805461156690613a8a565b80601f016020809104026020016040519081016040528092919081815260200182805461159290613a8a565b80156115df5780601f106115b4576101008083540402835291602001916115df565b820191906000526020600020905b8154815290600101906020018083116115c257829003601f168201915b5050505050905090565b6115fb6115f4611be5565b8383612378565b5050565b600b8060000154905081565b61161c611616611be5565b83611ca6565b61165b576040517f08c379a000000000000000000000000000000000000000000000000000000000815260040161165290613c51565b60405180910390fd5b611667848484846124e4565b50505050565b611675611a6e565b61167e816112d2565b73ffffffffffffffffffffffffffffffffffffffff163373ffffffffffffffffffffffffffffffffffffffff16146116eb576040517f08c379a00000000000000000000000000000000000000000000000000000000081526004016116e290613fd7565b60405180910390fd5b60006011828154811061170157611700613c71565b5b906000526020600020906003020160020160006101000a81548160ff0219169083151502179055506117343060006115e9565b7fed11257e142eeb2c0b3836a0f6d36c5717b1750048e113fc22b96f3bd4176fd28160405161176391906131f5565b60405180910390a150565b606061177982611b9a565b6000611783612540565b905060008151116117a357604051806020016040528060008152506117ce565b806117ad84612557565b6040516020016117be929190614033565b6040516020818303038152906040525b915050919050565b60606117e0612625565b60006117ec600b612097565b67ffffffffffffffff8111156118055761180461337d565b5b6040519080825280602002602001820160405280156118335781602001602082028036833780820191505090505b50905060005b611843600b612097565b8110156118b357611853816112d2565b82828151811061186657611865613c71565b5b602002602001019073ffffffffffffffffffffffffffffffffffffffff16908173ffffffffffffffffffffffffffffffffffffffff168152505080806118ab90614057565b915050611839565b508091505090565b600e5481565b6000600560008473ffffffffffffffffffffffffffffffffffffffff1673ffffffffffffffffffffffffffffffffffffffff16815260200190815260200160002060008373ffffffffffffffffffffffffffffffffffffffff1673ffffffffffffffffffffffffffffffffffffffff16815260200190815260200160002060009054906101000a900460ff16905092915050565b6060600061196283611358565b905060008167ffffffffffffffff8111156119805761197f61337d565b5b6040519080825280602002602001820160405280156119b957816020015b6119a6612e86565b81526020019060019003908161199e5790505b50905060005b82811015611a635760006119d38683610e9a565b9050601181815481106119e9576119e8613c71565b5b906000526020600020906003020160405180606001604052908160008201548152602001600182015481526020016002820160009054906101000a900460ff161515151581525050838381518110611a4457611a43613c71565b5b6020026020010181905250508080611a5b90614057565b9150506119bf565b508092505050919050565b611a766112bb565b15611ab6576040517f08c379a0000000000000000000000000000000000000000000000000000000008152600401611aad906140eb565b60405180910390fd5b565b60007f80ac58cd000000000000000000000000000000000000000000000000000000007bffffffffffffffffffffffffffffffffffffffffffffffffffffffff1916827bffffffffffffffffffffffffffffffffffffffffffffffffffffffff19161480611b8357507f5b5e139f000000000000000000000000000000000000000000000000000000007bffffffffffffffffffffffffffffffffffffffffffffffffffffffff1916827bffffffffffffffffffffffffffffffffffffffffffffffffffffffff1916145b80611b935750611b928261266e565b5b9050919050565b611ba3816126d8565b611be2576040517f08c379a0000000000000000000000000000000000000000000000000000000008152600401611bd990613eb3565b60405180910390fd5b50565b600033905090565b816004600083815260200190815260200160002060006101000a81548173ffffffffffffffffffffffffffffffffffffffff021916908373ffffffffffffffffffffffffffffffffffffffff160217905550808273ffffffffffffffffffffffffffffffffffffffff16611c60836112d2565b73ffffffffffffffffffffffffffffffffffffffff167f8c5be1e5ebec7d5bd14f71427d1e84f3dd0314c0f7b2291e5b200ac8c7c3b92560405160405180910390a45050565b600080611cb2836112d2565b90508073ffffffffffffffffffffffffffffffffffffffff168473ffffffffffffffffffffffffffffffffffffffff161480611cf45750611cf381856118c1565b5b80611d3257508373ffffffffffffffffffffffffffffffffffffffff16611d1a84610bca565b73ffffffffffffffffffffffffffffffffffffffff16145b91505092915050565b8273ffffffffffffffffffffffffffffffffffffffff16611d5b826112d2565b73ffffffffffffffffffffffffffffffffffffffff1614611db1576040517f08c379a0000000000000000000000000000000000000000000000000000000008152600401611da89061417d565b60405180910390fd5b600073ffffffffffffffffffffffffffffffffffffffff168273ffffffffffffffffffffffffffffffffffffffff1603611e20576040517f08c379a0000000000000000000000000000000000000000000000000000000008152600401611e179061420f565b60405180910390fd5b611e2d8383836001612719565b8273ffffffffffffffffffffffffffffffffffffffff16611e4d826112d2565b73ffffffffffffffffffffffffffffffffffffffff1614611ea3576040517f08c379a0000000000000000000000000000000000000000000000000000000008152600401611e9a9061417d565b60405180910390fd5b6004600082815260200190815260200160002060006101000a81549073ffffffffffffffffffffffffffffffffffffffff02191690556001600360008573ffffffffffffffffffffffffffffffffffffffff1673ffffffffffffffffffffffffffffffffffffffff168152602001908152602001600020600082825403925050819055506001600360008473ffffffffffffffffffffffffffffffffffffffff1673ffffffffffffffffffffffffffffffffffffffff16815260200190815260200160002060008282540192505081905550816002600083815260200190815260200160002060006101000a81548173ffffffffffffffffffffffffffffffffffffffff021916908373ffffffffffffffffffffffffffffffffffffffff160217905550808273ffffffffffffffffffffffffffffffffffffffff168473ffffffffffffffffffffffffffffffffffffffff167fddf252ad1be2c89b69c2b068fc378daa952ba7f163c4a11628f55a4df523b3ef60405160405180910390a461202f8383836001612877565b505050565b61203c612625565b6000600a60006101000a81548160ff0219169083151502179055507f5db9ee0a495bf2e6ff9c91a7834c1ba4fdd244a5e8aa4e537bd38aeae4b073aa612080611be5565b60405161208d919061318b565b60405180910390a1565b600081600001549050919050565b600073ffffffffffffffffffffffffffffffffffffffff168273ffffffffffffffffffffffffffffffffffffffff1603612114576040517f08c379a000000000000000000000000000000000000000000000000000000000815260040161210b9061427b565b60405180910390fd5b61211d816126d8565b1561215d576040517f08c379a0000000000000000000000000000000000000000000000000000000008152600401612154906142e7565b60405180910390fd5b61216b600083836001612719565b612174816126d8565b156121b4576040517f08c379a00000000000000000000000000000000000000000000000000000000081526004016121ab906142e7565b60405180910390fd5b6001600360008473ffffffffffffffffffffffffffffffffffffffff1673ffffffffffffffffffffffffffffffffffffffff16815260200190815260200160002060008282540192505081905550816002600083815260200190815260200160002060006101000a81548173ffffffffffffffffffffffffffffffffffffffff021916908373ffffffffffffffffffffffffffffffffffffffff160217905550808273ffffffffffffffffffffffffffffffffffffffff16600073ffffffffffffffffffffffffffffffffffffffff167fddf252ad1be2c89b69c2b068fc378daa952ba7f163c4a11628f55a4df523b3ef60405160405180910390a46122be600083836001612877565b5050565b6001816000016000828254019250508190555050565b60006002600083815260200190815260200160002060009054906101000a900473ffffffffffffffffffffffffffffffffffffffff169050919050565b61231d611a6e565b6001600a60006101000a81548160ff0219169083151502179055507f62e78cea01bee320cd4e420270b5ea74000d11b0c9f74754ebdbfc544b05a258612361611be5565b60405161236e919061318b565b60405180910390a1565b8173ffffffffffffffffffffffffffffffffffffffff168373ffffffffffffffffffffffffffffffffffffffff16036123e6576040517f08c379a00000000000000000000000000000000000000000000000000000000081526004016123dd90614353565b60405180910390fd5b80600560008573ffffffffffffffffffffffffffffffffffffffff1673ffffffffffffffffffffffffffffffffffffffff16815260200190815260200160002060008473ffffffffffffffffffffffffffffffffffffffff1673ffffffffffffffffffffffffffffffffffffffff16815260200190815260200160002060006101000a81548160ff0219169083151502179055508173ffffffffffffffffffffffffffffffffffffffff168373ffffffffffffffffffffffffffffffffffffffff167f17307eab39ab6107e8899845ad3d59bd9653f200f220920489ca2b5937696c31836040516124d79190613082565b60405180910390a3505050565b6124ef848484611d3b565b6124fb8484848461287d565b61253a576040517f08c379a0000000000000000000000000000000000000000000000000000000008152600401612531906143e5565b60405180910390fd5b50505050565b606060405180602001604052806000815250905090565b60606000600161256684612a04565b01905060008167ffffffffffffffff8111156125855761258461337d565b5b6040519080825280601f01601f1916602001820160405280156125b75781602001600182028036833780820191505090505b509050600082602001820190505b60011561261a578080600190039150507f3031323334353637383961626364656600000000000000000000000000000000600a86061a8153600a858161260e5761260d613915565b5b049450600085036125c5575b819350505050919050565b61262d6112bb565b61266c576040517f08c379a000000000000000000000000000000000000000000000000000000000815260040161266390614451565b60405180910390fd5b565b60007f01ffc9a7000000000000000000000000000000000000000000000000000000007bffffffffffffffffffffffffffffffffffffffffffffffffffffffff1916827bffffffffffffffffffffffffffffffffffffffffffffffffffffffff1916149050919050565b60008073ffffffffffffffffffffffffffffffffffffffff166126fa836122d8565b73ffffffffffffffffffffffffffffffffffffffff1614159050919050565b61272584848484612b57565b6001811115612769576040517f08c379a0000000000000000000000000000000000000000000000000000000008152600401612760906144e3565b60405180910390fd5b6000829050600073ffffffffffffffffffffffffffffffffffffffff168573ffffffffffffffffffffffffffffffffffffffff16036127b0576127ab81612b5d565b6127ef565b8373ffffffffffffffffffffffffffffffffffffffff168573ffffffffffffffffffffffffffffffffffffffff16146127ee576127ed8582612ba6565b5b5b600073ffffffffffffffffffffffffffffffffffffffff168473ffffffffffffffffffffffffffffffffffffffff16036128315761282c81612d13565b612870565b8473ffffffffffffffffffffffffffffffffffffffff168473ffffffffffffffffffffffffffffffffffffffff161461286f5761286e8482612de4565b5b5b5050505050565b50505050565b600061289e8473ffffffffffffffffffffffffffffffffffffffff16612e63565b156129f7578373ffffffffffffffffffffffffffffffffffffffff1663150b7a026128c7611be5565b8786866040518563ffffffff1660e01b81526004016128e99493929190614558565b6020604051808303816000875af192505050801561292557506040513d601f19601f8201168201806040525081019061292291906145b9565b60015b6129a7573d8060008114612955576040519150601f19603f3d011682016040523d82523d6000602084013e61295a565b606091505b50600081510361299f576040517f08c379a0000000000000000000000000000000000000000000000000000000008152600401612996906143e5565b60405180910390fd5b805181602001fd5b63150b7a0260e01b7bffffffffffffffffffffffffffffffffffffffffffffffffffffffff1916817bffffffffffffffffffffffffffffffffffffffffffffffffffffffff1916149150506129fc565b600190505b949350505050565b600080600090507a184f03e93ff9f4daa797ed6e38ed64bf6a1f0100000000000000008310612a62577a184f03e93ff9f4daa797ed6e38ed64bf6a1f0100000000000000008381612a5857612a57613915565b5b0492506040810190505b6d04ee2d6d415b85acef81000000008310612a9f576d04ee2d6d415b85acef81000000008381612a9557612a94613915565b5b0492506020810190505b662386f26fc100008310612ace57662386f26fc100008381612ac457612ac3613915565b5b0492506010810190505b6305f5e1008310612af7576305f5e1008381612aed57612aec613915565b5b0492506008810190505b6127108310612b1c576127108381612b1257612b11613915565b5b0492506004810190505b60648310612b3f5760648381612b3557612b34613915565b5b0492506002810190505b600a8310612b4e576001810190505b80915050919050565b50505050565b6008805490506009600083815260200190815260200160002081905550600881908060018154018082558091505060019003906000526020600020016000909190919091505550565b60006001612bb384611358565b612bbd9190613975565b9050600060076000848152602001908152602001600020549050818114612ca2576000600660008673ffffffffffffffffffffffffffffffffffffffff1673ffffffffffffffffffffffffffffffffffffffff168152602001908152602001600020600084815260200190815260200160002054905080600660008773ffffffffffffffffffffffffffffffffffffffff1673ffffffffffffffffffffffffffffffffffffffff168152602001908152602001600020600084815260200190815260200160002081905550816007600083815260200190815260200160002081905550505b6007600084815260200190815260200160002060009055600660008573ffffffffffffffffffffffffffffffffffffffff1673ffffffffffffffffffffffffffffffffffffffff16815260200190815260200160002060008381526020019081526020016000206000905550505050565b60006001600880549050612d279190613975565b9050600060096000848152602001908152602001600020549050600060088381548110612d5757612d56613c71565b5b906000526020600020015490508060088381548110612d7957612d78613c71565b5b906000526020600020018190555081600960008381526020019081526020016000208190555060096000858152602001908152602001600020600090556008805480612dc857612dc76145e6565b5b6001900381819060005260206000200160009055905550505050565b6000612def83611358565b905081600660008573ffffffffffffffffffffffffffffffffffffffff1673ffffffffffffffffffffffffffffffffffffffff168152602001908152602001600020600083815260200190815260200160002081905550806007600084815260200190815260200160002081905550505050565b6000808273ffffffffffffffffffffffffffffffffffffffff163b119050919050565b604051806060016040528060008152602001600081526020016000151581525090565b6000604051905090565b600080fd5b600080fd5b600073ffffffffffffffffffffffffffffffffffffffff82169050919050565b6000612ee882612ebd565b9050919050565b612ef881612edd565b8114612f0357600080fd5b50565b600081359050612f1581612eef565b92915050565b6000612f2682612ebd565b9050919050565b612f3681612f1b565b8114612f4157600080fd5b50565b600081359050612f5381612f2d565b92915050565b6000819050919050565b612f6c81612f59565b8114612f7757600080fd5b50565b600081359050612f8981612f63565b92915050565b600080600060608486031215612fa857612fa7612eb3565b5b6000612fb686828701612f06565b9350506020612fc786828701612f44565b9250506040612fd886828701612f7a565b9150509250925092565b60007fffffffff0000000000000000000000000000000000000000000000000000000082169050919050565b61301781612fe2565b811461302257600080fd5b50565b6000813590506130348161300e565b92915050565b6000602082840312156130505761304f612eb3565b5b600061305e84828501613025565b91505092915050565b60008115159050919050565b61307c81613067565b82525050565b60006020820190506130976000830184613073565b92915050565b600081519050919050565b600082825260208201905092915050565b60005b838110156130d75780820151818401526020810190506130bc565b60008484015250505050565b6000601f19601f8301169050919050565b60006130ff8261309d565b61310981856130a8565b93506131198185602086016130b9565b613122816130e3565b840191505092915050565b6000602082019050818103600083015261314781846130f4565b905092915050565b60006020828403121561316557613164612eb3565b5b600061317384828501612f7a565b91505092915050565b61318581612f1b565b82525050565b60006020820190506131a0600083018461317c565b92915050565b600080604083850312156131bd576131bc612eb3565b5b60006131cb85828601612f44565b92505060206131dc85828601612f7a565b9150509250929050565b6131ef81612f59565b82525050565b600060208201905061320a60008301846131e6565b92915050565b60008060006060848603121561322957613228612eb3565b5b600061323786828701612f44565b935050602061324886828701612f44565b925050604061325986828701612f7a565b9150509250925092565b6000806040838503121561327a57613279612eb3565b5b600061328885828601612f7a565b925050602061329985828601612f7a565b9150509250929050565b6000602082840312156132b9576132b8612eb3565b5b60006132c784828501612f44565b91505092915050565b60006060820190506132e560008301866131e6565b6132f260208301856131e6565b6132ff6040830184613073565b949350505050565b61331081613067565b811461331b57600080fd5b50565b60008135905061332d81613307565b92915050565b6000806040838503121561334a57613349612eb3565b5b600061335885828601612f44565b92505060206133698582860161331e565b9150509250929050565b600080fd5b600080fd5b7f4e487b7100000000000000000000000000000000000000000000000000000000600052604160045260246000fd5b6133b5826130e3565b810181811067ffffffffffffffff821117156133d4576133d361337d565b5b80604052505050565b60006133e7612ea9565b90506133f382826133ac565b919050565b600067ffffffffffffffff8211156134135761341261337d565b5b61341c826130e3565b9050602081019050919050565b82818337600083830152505050565b600061344b613446846133f8565b6133dd565b90508281526020810184848401111561346757613466613378565b5b613472848285613429565b509392505050565b600082601f83011261348f5761348e613373565b5b813561349f848260208601613438565b91505092915050565b600080600080608085870312156134c2576134c1612eb3565b5b60006134d087828801612f44565b94505060206134e187828801612f44565b93505060406134f287828801612f7a565b925050606085013567ffffffffffffffff81111561351357613512612eb8565b5b61351f8782880161347a565b91505092959194509250565b600081519050919050565b600082825260208201905092915050565b6000819050602082019050919050565b61356081612f1b565b82525050565b60006135728383613557565b60208301905092915050565b6000602082019050919050565b60006135968261352b565b6135a08185613536565b93506135ab83613547565b8060005b838110156135dc5781516135c38882613566565b97506135ce8361357e565b9250506001810190506135af565b5085935050505092915050565b60006020820190508181036000830152613603818461358b565b905092915050565b6000806040838503121561362257613621612eb3565b5b600061363085828601612f44565b925050602061364185828601612f44565b9150509250929050565b600081519050919050565b600082825260208201905092915050565b6000819050602082019050919050565b61368081612f59565b82525050565b61368f81613067565b82525050565b6060820160008201516136ab6000850182613677565b5060208201516136be6020850182613677565b5060408201516136d16040850182613686565b50505050565b60006136e38383613695565b60608301905092915050565b6000602082019050919050565b60006137078261364b565b6137118185613656565b935061371c83613667565b8060005b8381101561374d57815161373488826136d7565b975061373f836136ef565b925050600181019050613720565b5085935050505092915050565b6000602082019050818103600083015261377481846136fc565b905092915050565b7f4d6178207072696365207472616e73666572206c696d6974207265616368656460008201527f2e00000000000000000000000000000000000000000000000000000000000000602082015250565b60006137d86021836130a8565b91506137e38261377c565b604082019050919050565b60006020820190508181036000830152613807816137cb565b9050919050565b6000819050919050565b600061383361382e61382984612ebd565b61380e565b612ebd565b9050919050565b600061384582613818565b9050919050565b60006138578261383a565b9050919050565b6138678161384c565b82525050565b6000606082019050613882600083018661385e565b61388f602083018561317c565b61389c60408301846131e6565b949350505050565b7f4e487b7100000000000000000000000000000000000000000000000000000000600052601160045260246000fd5b60006138de82612f59565b91506138e983612f59565b92508282026138f781612f59565b9150828204841483151761390e5761390d6138a4565b5b5092915050565b7f4e487b7100000000000000000000000000000000000000000000000000000000600052601260045260246000fd5b600061394f82612f59565b915061395a83612f59565b92508261396a57613969613915565b5b828204905092915050565b600061398082612f59565b915061398b83612f59565b92508282039050818111156139a3576139a26138a4565b5b92915050565b600081905092915050565b50565b60006139c46000836139a9565b91506139cf826139b4565b600082019050919050565b60006139e5826139b7565b9150819050919050565b7f4661696c656420746f2073656e64204574686572000000000000000000000000600082015250565b6000613a256014836130a8565b9150613a30826139ef565b602082019050919050565b60006020820190508181036000830152613a5481613a18565b9050919050565b7f4e487b7100000000000000000000000000000000000000000000000000000000600052602260045260246000fd5b60006002820490506001821680613aa257607f821691505b602082108103613ab557613ab4613a5b565b5b50919050565b7f4552433732313a20617070726f76616c20746f2063757272656e74206f776e6560008201527f7200000000000000000000000000000000000000000000000000000000000000602082015250565b6000613b176021836130a8565b9150613b2282613abb565b604082019050919050565b60006020820190508181036000830152613b4681613b0a565b9050919050565b7f4552433732313a20617070726f76652063616c6c6572206973206e6f7420746f60008201527f6b656e206f776e6572206f7220617070726f76656420666f7220616c6c000000602082015250565b6000613ba9603d836130a8565b9150613bb482613b4d565b604082019050919050565b60006020820190508181036000830152613bd881613b9c565b9050919050565b7f4552433732313a2063616c6c6572206973206e6f7420746f6b656e206f776e6560008201527f72206f7220617070726f76656400000000000000000000000000000000000000602082015250565b6000613c3b602d836130a8565b9150613c4682613bdf565b604082019050919050565b60006020820190508181036000830152613c6a81613c2e565b9050919050565b7f4e487b7100000000000000000000000000000000000000000000000000000000600052603260045260246000fd5b6000606082019050613cb5600083018661317c565b613cc260208301856131e6565b613ccf60408301846131e6565b949350505050565b7f455243373231456e756d657261626c653a206f776e657220696e646578206f7560008201527f74206f6620626f756e6473000000000000000000000000000000000000000000602082015250565b6000613d33602b836130a8565b9150613d3e82613cd7565b604082019050919050565b60006020820190508181036000830152613d6281613d26565b9050919050565b7f455243373231456e756d657261626c653a20676c6f62616c20696e646578206f60008201527f7574206f6620626f756e64730000000000000000000000000000000000000000602082015250565b6000613dc5602c836130a8565b9150613dd082613d69565b604082019050919050565b60006020820190508181036000830152613df481613db8565b9050919050565b7f4e6f206d6f7265207469636b6574206c65667420666f722073616c6500000000600082015250565b6000613e31601c836130a8565b9150613e3c82613dfb565b602082019050919050565b60006020820190508181036000830152613e6081613e24565b9050919050565b7f4552433732313a20696e76616c696420746f6b656e2049440000000000000000600082015250565b6000613e9d6018836130a8565b9150613ea882613e67565b602082019050919050565b60006020820190508181036000830152613ecc81613e90565b9050919050565b7f4552433732313a2061646472657373207a65726f206973206e6f74206120766160008201527f6c6964206f776e65720000000000000000000000000000000000000000000000602082015250565b6000613f2f6029836130a8565b9150613f3a82613ed3565b604082019050919050565b60006020820190508181036000830152613f5e81613f22565b9050919050565b7f5468652073656e646572206973206e6f7420746865206f776e6572206f66207460008201527f6865207469636b65740000000000000000000000000000000000000000000000602082015250565b6000613fc16029836130a8565b9150613fcc82613f65565b604082019050919050565b60006020820190508181036000830152613ff081613fb4565b9050919050565b600081905092915050565b600061400d8261309d565b6140178185613ff7565b93506140278185602086016130b9565b80840191505092915050565b600061403f8285614002565b915061404b8284614002565b91508190509392505050565b600061406282612f59565b91507fffffffffffffffffffffffffffffffffffffffffffffffffffffffffffffffff8203614094576140936138a4565b5b600182019050919050565b7f5061757361626c653a2070617573656400000000000000000000000000000000600082015250565b60006140d56010836130a8565b91506140e08261409f565b602082019050919050565b60006020820190508181036000830152614104816140c8565b9050919050565b7f4552433732313a207472616e736665722066726f6d20696e636f72726563742060008201527f6f776e6572000000000000000000000000000000000000000000000000000000602082015250565b60006141676025836130a8565b91506141728261410b565b604082019050919050565b600060208201905081810360008301526141968161415a565b9050919050565b7f4552433732313a207472616e7366657220746f20746865207a65726f2061646460008201527f7265737300000000000000000000000000000000000000000000000000000000602082015250565b60006141f96024836130a8565b91506142048261419d565b604082019050919050565b60006020820190508181036000830152614228816141ec565b9050919050565b7f4552433732313a206d696e7420746f20746865207a65726f2061646472657373600082015250565b60006142656020836130a8565b91506142708261422f565b602082019050919050565b6000602082019050818103600083015261429481614258565b9050919050565b7f4552433732313a20746f6b656e20616c7265616479206d696e74656400000000600082015250565b60006142d1601c836130a8565b91506142dc8261429b565b602082019050919050565b60006020820190508181036000830152614300816142c4565b9050919050565b7f4552433732313a20617070726f766520746f2063616c6c657200000000000000600082015250565b600061433d6019836130a8565b915061434882614307565b602082019050919050565b6000602082019050818103600083015261436c81614330565b9050919050565b7f4552433732313a207472616e7366657220746f206e6f6e20455243373231526560008201527f63656976657220696d706c656d656e7465720000000000000000000000000000602082015250565b60006143cf6032836130a8565b91506143da82614373565b604082019050919050565b600060208201905081810360008301526143fe816143c2565b9050919050565b7f5061757361626c653a206e6f7420706175736564000000000000000000000000600082015250565b600061443b6014836130a8565b915061444682614405565b602082019050919050565b6000602082019050818103600083015261446a8161442e565b9050919050565b7f455243373231456e756d657261626c653a20636f6e736563757469766520747260008201527f616e7366657273206e6f7420737570706f727465640000000000000000000000602082015250565b60006144cd6035836130a8565b91506144d882614471565b604082019050919050565b600060208201905081810360008301526144fc816144c0565b9050919050565b600081519050919050565b600082825260208201905092915050565b600061452a82614503565b614534818561450e565b93506145448185602086016130b9565b61454d816130e3565b840191505092915050565b600060808201905061456d600083018761317c565b61457a602083018661317c565b61458760408301856131e6565b8181036060830152614599818461451f565b905095945050505050565b6000815190506145b38161300e565b92915050565b6000602082840312156145cf576145ce612eb3565b5b60006145dd848285016145a4565b91505092915050565b7f4e487b7100000000000000000000000000000000000000000000000000000000600052603160045260246000fdfea2646970667358221220b7d4e9c0e44edecd99f15805576249f187de5c6209662ddcb6b43dc25552183564736f6c63430008120033",
  "linkReferences": {},
  "deployedLinkReferences": {}
}