{
  "_format": "hh-sol-artifact-1",
  "contractName": "Ticketing",
  "sourceName": "contracts/Ticketing.sol",
  "abi": [
    {
      "inputs": [
        {
          "internalType": "uint256",
          "name": "maxPrice",
          "type": "uint256"
        },
        {
          "internalType": "uint256",
          "name": "maxTicketCount",
          "type": "uint256"
        },
        {
          "internalType": "uint256",
          "name": "price",
          "type": "uint256"
        },
        {
          "internalType": "uint256",
          "name": "resaleCut",
          "type": "uint256"
        }
      ],
      "stateMutability": "nonpayable",
      "type": "constructor"
    },
    {
      "anonymous": false,
      "inputs": [
        {
          "indexed": true,
          "internalType": "address",
          "name": "owner",
          "type": "address"
        },
        {
          "indexed": true,
          "internalType": "address",
          "name": "approved",
          "type": "address"
        },
        {
          "indexed": true,
          "internalType": "uint256",
          "name": "tokenId",
          "type": "uint256"
        }
      ],
      "name": "Approval",
      "type": "event"
    },
    {
      "anonymous": false,
      "inputs": [
        {
          "indexed": true,
          "internalType": "address",
          "name": "owner",
          "type": "address"
        },
        {
          "indexed": true,
          "internalType": "address",
          "name": "operator",
          "type": "address"
        },
        {
          "indexed": false,
          "internalType": "bool",
          "name": "approved",
          "type": "bool"
        }
      ],
      "name": "ApprovalForAll",
      "type": "event"
    },
    {
      "anonymous": false,
      "inputs": [
        {
          "indexed": false,
          "internalType": "address",
          "name": "account",
          "type": "address"
        }
      ],
      "name": "Paused",
      "type": "event"
    },
    {
      "anonymous": false,
      "inputs": [
        {
          "indexed": false,
          "internalType": "uint256",
          "name": "_ticketId",
          "type": "uint256"
        }
      ],
      "name": "TicketOffSale",
      "type": "event"
    },
    {
      "anonymous": false,
      "inputs": [
        {
          "indexed": false,
          "internalType": "address",
          "name": "_by",
          "type": "address"
        },
        {
          "indexed": false,
          "internalType": "uint256",
          "name": "_ticketId",
          "type": "uint256"
        },
        {
          "indexed": false,
          "internalType": "uint256",
          "name": "_price",
          "type": "uint256"
        }
      ],
      "name": "TicketOnSale",
      "type": "event"
    },
    {
      "anonymous": false,
      "inputs": [
        {
          "indexed": true,
          "internalType": "address",
          "name": "from",
          "type": "address"
        },
        {
          "indexed": true,
          "internalType": "address",
          "name": "to",
          "type": "address"
        },
        {
          "indexed": true,
          "internalType": "uint256",
          "name": "tokenId",
          "type": "uint256"
        }
      ],
      "name": "Transfer",
      "type": "event"
    },
    {
      "anonymous": false,
      "inputs": [
        {
          "indexed": false,
          "internalType": "address",
          "name": "account",
          "type": "address"
        }
      ],
      "name": "Unpaused",
      "type": "event"
    },
    {
      "inputs": [],
      "name": "_initialPrice",
      "outputs": [
        {
          "internalType": "uint256",
          "name": "",
          "type": "uint256"
        }
      ],
      "stateMutability": "view",
      "type": "function"
    },
    {
      "inputs": [],
      "name": "_maxTicketCount",
      "outputs": [
        {
          "internalType": "uint256",
          "name": "",
          "type": "uint256"
        }
      ],
      "stateMutability": "view",
      "type": "function"
    },
    {
      "inputs": [],
      "name": "_maxTransferPrice",
      "outputs": [
        {
          "internalType": "uint256",
          "name": "",
          "type": "uint256"
        }
      ],
      "stateMutability": "view",
      "type": "function"
    },
    {
      "inputs": [],
      "name": "_resaleCut",
      "outputs": [
        {
          "internalType": "uint256",
          "name": "",
          "type": "uint256"
        }
      ],
      "stateMutability": "view",
      "type": "function"
    },
    {
      "inputs": [
        {
          "internalType": "uint256",
          "name": "",
          "type": "uint256"
        }
      ],
      "name": "_tickets",
      "outputs": [
        {
          "internalType": "uint256",
          "name": "_ticketId",
          "type": "uint256"
        },
        {
          "internalType": "uint256",
          "name": "_price",
          "type": "uint256"
        },
        {
          "internalType": "bool",
          "name": "_onSale",
          "type": "bool"
        }
      ],
      "stateMutability": "view",
      "type": "function"
    },
    {
      "inputs": [],
      "name": "_tokenIds",
      "outputs": [
        {
          "internalType": "uint256",
          "name": "_value",
          "type": "uint256"
        }
      ],
      "stateMutability": "view",
      "type": "function"
    },
    {
      "inputs": [
        {
          "internalType": "address",
          "name": "to",
          "type": "address"
        },
        {
          "internalType": "uint256",
          "name": "tokenId",
          "type": "uint256"
        }
      ],
      "name": "approve",
      "outputs": [],
      "stateMutability": "nonpayable",
      "type": "function"
    },
    {
      "inputs": [
        {
          "internalType": "address",
          "name": "owner",
          "type": "address"
        }
      ],
      "name": "balanceOf",
      "outputs": [
        {
          "internalType": "uint256",
          "name": "",
          "type": "uint256"
        }
      ],
      "stateMutability": "view",
      "type": "function"
    },
    {
      "inputs": [
        {
          "internalType": "uint256",
          "name": "ticketId",
          "type": "uint256"
        }
      ],
      "name": "buyOnSaleTicket",
      "outputs": [],
      "stateMutability": "payable",
      "type": "function"
    },
    {
      "inputs": [
        {
          "internalType": "address",
          "name": "buyer",
          "type": "address"
        }
      ],
      "name": "buyTicketFromOrganizer",
      "outputs": [
        {
          "internalType": "uint256",
          "name": "",
          "type": "uint256"
        }
      ],
      "stateMutability": "payable",
      "type": "function"
    },
    {
      "inputs": [
        {
          "internalType": "uint256",
          "name": "ticketId",
          "type": "uint256"
        }
      ],
      "name": "cancelSale",
      "outputs": [],
      "stateMutability": "nonpayable",
      "type": "function"
    },
    {
      "inputs": [
        {
          "internalType": "uint256",
          "name": "tokenId",
          "type": "uint256"
        }
      ],
      "name": "getApproved",
      "outputs": [
        {
          "internalType": "address",
          "name": "",
          "type": "address"
        }
      ],
      "stateMutability": "view",
      "type": "function"
    },
    {
      "inputs": [],
      "name": "getMapping",
      "outputs": [
        {
          "internalType": "address[]",
          "name": "",
          "type": "address[]"
        }
      ],
      "stateMutability": "view",
      "type": "function"
    },
    {
      "inputs": [
        {
          "internalType": "address",
          "name": "owner",
          "type": "address"
        }
      ],
      "name": "getOwnedTicket",
      "outputs": [
        {
          "components": [
            {
              "internalType": "uint256",
              "name": "_ticketId",
              "type": "uint256"
            },
            {
              "internalType": "uint256",
              "name": "_price",
              "type": "uint256"
            },
            {
              "internalType": "bool",
              "name": "_onSale",
              "type": "bool"
            }
          ],
          "internalType": "struct Ticketing.Ticket[]",
          "name": "",
          "type": "tuple[]"
        }
      ],
      "stateMutability": "view",
      "type": "function"
    },
    {
      "inputs": [
        {
          "internalType": "uint256",
          "name": "ticketId",
          "type": "uint256"
        }
      ],
      "name": "getTicket",
      "outputs": [
        {
          "internalType": "uint256",
          "name": "",
          "type": "uint256"
        },
        {
          "internalType": "uint256",
          "name": "",
          "type": "uint256"
        },
        {
          "internalType": "bool",
          "name": "",
          "type": "bool"
        }
      ],
      "stateMutability": "view",
      "type": "function"
    },
    {
      "inputs": [
        {
          "internalType": "address",
          "name": "owner",
          "type": "address"
        },
        {
          "internalType": "address",
          "name": "operator",
          "type": "address"
        }
      ],
      "name": "isApprovedForAll",
      "outputs": [
        {
          "internalType": "bool",
          "name": "",
          "type": "bool"
        }
      ],
      "stateMutability": "view",
      "type": "function"
    },
    {
      "inputs": [],
      "name": "name",
      "outputs": [
        {
          "internalType": "string",
          "name": "",
          "type": "string"
        }
      ],
      "stateMutability": "view",
      "type": "function"
    },
    {
      "inputs": [
        {
          "internalType": "uint256",
          "name": "tokenId",
          "type": "uint256"
        }
      ],
      "name": "ownerOf",
      "outputs": [
        {
          "internalType": "address",
          "name": "",
          "type": "address"
        }
      ],
      "stateMutability": "view",
      "type": "function"
    },
    {
      "inputs": [],
      "name": "pause",
      "outputs": [],
      "stateMutability": "nonpayable",
      "type": "function"
    },
    {
      "inputs": [],
      "name": "paused",
      "outputs": [
        {
          "internalType": "bool",
          "name": "",
          "type": "bool"
        }
      ],
      "stateMutability": "view",
      "type": "function"
    },
    {
      "inputs": [
        {
          "internalType": "address",
          "name": "from",
          "type": "address"
        },
        {
          "internalType": "address",
          "name": "to",
          "type": "address"
        },
        {
          "internalType": "uint256",
          "name": "tokenId",
          "type": "uint256"
        }
      ],
      "name": "safeTransferFrom",
      "outputs": [],
      "stateMutability": "nonpayable",
      "type": "function"
    },
    {
      "inputs": [
        {
          "internalType": "address",
          "name": "from",
          "type": "address"
        },
        {
          "internalType": "address",
          "name": "to",
          "type": "address"
        },
        {
          "internalType": "uint256",
          "name": "tokenId",
          "type": "uint256"
        },
        {
          "internalType": "bytes",
          "name": "data",
          "type": "bytes"
        }
      ],
      "name": "safeTransferFrom",
      "outputs": [],
      "stateMutability": "nonpayable",
      "type": "function"
    },
    {
      "inputs": [
        {
          "internalType": "uint256",
          "name": "ticketId",
          "type": "uint256"
        },
        {
          "internalType": "uint256",
          "name": "price",
          "type": "uint256"
        }
      ],
      "name": "sellTicket",
      "outputs": [],
      "stateMutability": "nonpayable",
      "type": "function"
    },
    {
      "inputs": [
        {
          "internalType": "address",
          "name": "operator",
          "type": "address"
        },
        {
          "internalType": "bool",
          "name": "approved",
          "type": "bool"
        }
      ],
      "name": "setApprovalForAll",
      "outputs": [],
      "stateMutability": "nonpayable",
      "type": "function"
    },
    {
      "inputs": [
        {
          "internalType": "bytes4",
          "name": "interfaceId",
          "type": "bytes4"
        }
      ],
      "name": "supportsInterface",
      "outputs": [
        {
          "internalType": "bool",
          "name": "",
          "type": "bool"
        }
      ],
      "stateMutability": "view",
      "type": "function"
    },
    {
      "inputs": [],
      "name": "symbol",
      "outputs": [
        {
          "internalType": "string",
          "name": "",
          "type": "string"
        }
      ],
      "stateMutability": "view",
      "type": "function"
    },
    {
      "inputs": [
        {
          "internalType": "uint256",
          "name": "index",
          "type": "uint256"
        }
      ],
      "name": "tokenByIndex",
      "outputs": [
        {
          "internalType": "uint256",
          "name": "",
          "type": "uint256"
        }
      ],
      "stateMutability": "view",
      "type": "function"
    },
    {
      "inputs": [
        {
          "internalType": "address",
          "name": "owner",
          "type": "address"
        },
        {
          "internalType": "uint256",
          "name": "index",
          "type": "uint256"
        }
      ],
      "name": "tokenOfOwnerByIndex",
      "outputs": [
        {
          "internalType": "uint256",
          "name": "",
          "type": "uint256"
        }
      ],
      "stateMutability": "view",
      "type": "function"
    },
    {
      "inputs": [
        {
          "internalType": "uint256",
          "name": "tokenId",
          "type": "uint256"
        }
      ],
      "name": "tokenURI",
      "outputs": [
        {
          "internalType": "string",
          "name": "",
          "type": "string"
        }
      ],
      "stateMutability": "view",
      "type": "function"
    },
    {
      "inputs": [],
      "name": "totalSupply",
      "outputs": [
        {
          "internalType": "uint256",
          "name": "",
          "type": "uint256"
        }
      ],
      "stateMutability": "view",
      "type": "function"
    },
    {
      "inputs": [
        {
          "internalType": "address",
          "name": "from",
          "type": "address"
        },
        {
          "internalType": "address",
          "name": "to",
          "type": "address"
        },
        {
          "internalType": "uint256",
          "name": "tokenId",
          "type": "uint256"
        }
      ],
      "name": "transferFrom",
      "outputs": [],
      "stateMutability": "nonpayable",
      "type": "function"
    },
    {
      "inputs": [
        {
          "internalType": "address payable",
          "name": "from",
          "type": "address"
        },
        {
          "internalType": "address",
          "name": "to",
          "type": "address"
        },
        {
          "internalType": "uint256",
          "name": "tokenId",
          "type": "uint256"
        }
      ],
      "name": "transferTicket",
      "outputs": [],
      "stateMutability": "payable",
      "type": "function"
    }
  ],
  "bytecode": "0x60806040523480156200001157600080fd5b5060405162004bf138038062004bf18339818101604052810190620000379190620001e0565b6040518060400160405280600681526020017f5469636b657400000000000000000000000000000000000000000000000000008152506040518060400160405280600281526020017f546b0000000000000000000000000000000000000000000000000000000000008152508160009081620000b49190620004c2565b508060019081620000c69190620004c2565b5050506000600a60006101000a81548160ff02191690831515021790555060008110158015620000f7575060648111155b62000139576040517f08c379a0000000000000000000000000000000000000000000000000000000008152600401620001309062000630565b60405180910390fd5b33600c60006101000a81548173ffffffffffffffffffffffffffffffffffffffff021916908373ffffffffffffffffffffffffffffffffffffffff16021790555083600d8190555082600e8190555081600f81905550806010819055505050505062000652565b600080fd5b6000819050919050565b620001ba81620001a5565b8114620001c657600080fd5b50565b600081519050620001da81620001af565b92915050565b60008060008060808587031215620001fd57620001fc620001a0565b5b60006200020d87828801620001c9565b94505060206200022087828801620001c9565b93505060406200023387828801620001c9565b92505060606200024687828801620001c9565b91505092959194509250565b600081519050919050565b7f4e487b7100000000000000000000000000000000000000000000000000000000600052604160045260246000fd5b7f4e487b7100000000000000000000000000000000000000000000000000000000600052602260045260246000fd5b60006002820490506001821680620002d457607f821691505b602082108103620002ea57620002e96200028c565b5b50919050565b60008190508160005260206000209050919050565b60006020601f8301049050919050565b600082821b905092915050565b600060088302620003547fffffffffffffffffffffffffffffffffffffffffffffffffffffffffffffffff8262000315565b62000360868362000315565b95508019841693508086168417925050509392505050565b6000819050919050565b6000620003a36200039d6200039784620001a5565b62000378565b620001a5565b9050919050565b6000819050919050565b620003bf8362000382565b620003d7620003ce82620003aa565b84845462000322565b825550505050565b600090565b620003ee620003df565b620003fb818484620003b4565b505050565b5b81811015620004235762000417600082620003e4565b60018101905062000401565b5050565b601f82111562000472576200043c81620002f0565b620004478462000305565b8101602085101562000457578190505b6200046f620004668562000305565b83018262000400565b50505b505050565b600082821c905092915050565b6000620004976000198460080262000477565b1980831691505092915050565b6000620004b2838362000484565b9150826002028217905092915050565b620004cd8262000252565b67ffffffffffffffff811115620004e957620004e86200025d565b5b620004f58254620002bb565b6200050282828562000427565b600060209050601f8311600181146200053a576000841562000525578287015190505b620005318582620004a4565b865550620005a1565b601f1984166200054a86620002f0565b60005b8281101562000574578489015182556001820191506020850194506020810190506200054d565b8683101562000594578489015162000590601f89168262000484565b8355505b6001600288020188555050505b505050505050565b600082825260208201905092915050565b7f496e76616c696420726573616c65206375742076616c75652c206d757374206260008201527f65206265747765656e20302d31303020696e636c757369766500000000000000602082015250565b600062000618603983620005a9565b91506200062582620005ba565b604082019050919050565b600060208201905081810360008301526200064b8162000609565b9050919050565b61458f80620006626000396000f3fe6080604052600436106101e35760003560e01c806370a0823111610102578063aa46a40011610095578063d5e350e311610064578063d5e350e314610707578063e287e7e414610732578063e985e9c51461075d578063fef77dfc1461079a576101e3565b8063aa46a4001461064d578063b88d4fde14610678578063bd94b005146106a1578063c87b56dd146106ca576101e3565b80637dc379fa116100d15780637dc379fa146105a35780638456cb59146105e257806395d89b41146105f9578063a22cb46514610624576101e3565b806370a08231146104d1578063731eedaf1461050e57806378a2db88146105395780637ab36b5314610578576101e3565b80632f745c591161017a5780634f6ccce7116101495780634f6ccce7146103fc5780635a1d2939146104395780635c975abb146104695780636352211e14610494576101e3565b80632f745c591461034f5780633a8d09261461038c57806342842e0e146103a857806345b0a3f1146103d1576101e3565b8063095ea7b3116101b6578063095ea7b3146102a957806318160ddd146102d257806323b872dd146102fd5780632a6c4c1414610326576101e3565b806301367e6a146101e857806301ffc9a71461020457806306fdde0314610241578063081812fc1461026c575b600080fd5b61020260048036038101906101fd9190612ed3565b6107d7565b005b34801561021057600080fd5b5061022b60048036038101906102269190612f7e565b610a94565b6040516102389190612fc6565b60405180910390f35b34801561024d57600080fd5b50610256610b0e565b6040516102639190613071565b60405180910390f35b34801561027857600080fd5b50610293600480360381019061028e9190613093565b610ba0565b6040516102a091906130cf565b60405180910390f35b3480156102b557600080fd5b506102d060048036038101906102cb91906130ea565b610be6565b005b3480156102de57600080fd5b506102e7610cfd565b6040516102f49190613139565b60405180910390f35b34801561030957600080fd5b50610324600480360381019061031f9190613154565b610d0a565b005b34801561033257600080fd5b5061034d600480360381019061034891906131a7565b610d6a565b005b34801561035b57600080fd5b50610376600480360381019061037191906130ea565b610e68565b6040516103839190613139565b60405180910390f35b6103a660048036038101906103a19190613093565b610f0d565b005b3480156103b457600080fd5b506103cf60048036038101906103ca9190613154565b610fc8565b005b3480156103dd57600080fd5b506103e6610fe8565b6040516103f39190613139565b60405180910390f35b34801561040857600080fd5b50610423600480360381019061041e9190613093565b610fee565b6040516104309190613139565b60405180910390f35b610453600480360381019061044e91906131e7565b61105f565b6040516104609190613139565b60405180910390f35b34801561047557600080fd5b5061047e61123f565b60405161048b9190612fc6565b60405180910390f35b3480156104a057600080fd5b506104bb60048036038101906104b69190613093565b611256565b6040516104c891906130cf565b60405180910390f35b3480156104dd57600080fd5b506104f860048036038101906104f391906131e7565b6112dc565b6040516105059190613139565b60405180910390f35b34801561051a57600080fd5b50610523611393565b6040516105309190613139565b60405180910390f35b34801561054557600080fd5b50610560600480360381019061055b9190613093565b611399565b60405161056f93929190613214565b60405180910390f35b34801561058457600080fd5b5061058d6113e0565b60405161059a9190613139565b60405180910390f35b3480156105af57600080fd5b506105ca60048036038101906105c59190613093565b6113e6565b6040516105d993929190613214565b60405180910390f35b3480156105ee57600080fd5b506105f7611477565b005b34801561060557600080fd5b5061060e6114db565b60405161061b9190613071565b60405180910390f35b34801561063057600080fd5b5061064b60048036038101906106469190613277565b61156d565b005b34801561065957600080fd5b50610662611583565b60405161066f9190613139565b60405180910390f35b34801561068457600080fd5b5061069f600480360381019061069a91906133ec565b61158f565b005b3480156106ad57600080fd5b506106c860048036038101906106c39190613093565b6115f1565b005b3480156106d657600080fd5b506106f160048036038101906106ec9190613093565b611715565b6040516106fe9190613071565b60405180910390f35b34801561071357600080fd5b5061071c61177d565b604051610729919061352d565b60405180910390f35b34801561073e57600080fd5b50610747611862565b6040516107549190613139565b60405180910390f35b34801561076957600080fd5b50610784600480360381019061077f919061354f565b611868565b6040516107919190612fc6565b60405180910390f35b3480156107a657600080fd5b506107c160048036038101906107bc91906131e7565b6118fc565b6040516107ce919061369e565b60405180910390f35b8173ffffffffffffffffffffffffffffffffffffffff163373ffffffffffffffffffffffffffffffffffffffff161461080f57600080fd5b600d54341115610854576040517f08c379a000000000000000000000000000000000000000000000000000000000815260040161084b90613732565b60405180910390fd5b3073ffffffffffffffffffffffffffffffffffffffff166323b872dd8484846040518463ffffffff1660e01b8152600401610891939291906137b1565b600060405180830381600087803b1580156108ab57600080fd5b505af11580156108bf573d6000803e3d6000fd5b5050505060006064601054346108d59190613817565b6108df9190613888565b90506000606460105460646108f491906138b9565b346108ff9190613817565b6109099190613888565b90506000808673ffffffffffffffffffffffffffffffffffffffff16836040516109329061391e565b60006040518083038185875af1925050503d806000811461096f576040519150601f19603f3d011682016040523d82523d6000602084013e610974565b606091505b5091509150600080600c60009054906101000a900473ffffffffffffffffffffffffffffffffffffffff1673ffffffffffffffffffffffffffffffffffffffff16866040516109c29061391e565b60006040518083038185875af1925050503d80600081146109ff576040519150601f19603f3d011682016040523d82523d6000602084013e610a04565b606091505b509150915083610a49576040517f08c379a0000000000000000000000000000000000000000000000000000000008152600401610a409061397f565b60405180910390fd5b81610a89576040517f08c379a0000000000000000000000000000000000000000000000000000000008152600401610a809061397f565b60405180910390fd5b505050505050505050565b60007f780e9d63000000000000000000000000000000000000000000000000000000007bffffffffffffffffffffffffffffffffffffffffffffffffffffffff1916827bffffffffffffffffffffffffffffffffffffffffffffffffffffffff19161480610b075750610b0682611a15565b5b9050919050565b606060008054610b1d906139ce565b80601f0160208091040260200160405190810160405280929190818152602001828054610b49906139ce565b8015610b965780601f10610b6b57610100808354040283529160200191610b96565b820191906000526020600020905b815481529060010190602001808311610b7957829003601f168201915b5050505050905090565b6000610bab82611af7565b6004600083815260200190815260200160002060009054906101000a900473ffffffffffffffffffffffffffffffffffffffff169050919050565b6000610bf182611256565b90508073ffffffffffffffffffffffffffffffffffffffff168373ffffffffffffffffffffffffffffffffffffffff1603610c61576040517f08c379a0000000000000000000000000000000000000000000000000000000008152600401610c5890613a71565b60405180910390fd5b8073ffffffffffffffffffffffffffffffffffffffff16610c80611b42565b73ffffffffffffffffffffffffffffffffffffffff161480610caf5750610cae81610ca9611b42565b611868565b5b610cee576040517f08c379a0000000000000000000000000000000000000000000000000000000008152600401610ce590613b03565b60405180910390fd5b610cf88383611b4a565b505050565b6000600880549050905090565b610d1b610d15611b42565b82611c03565b610d5a576040517f08c379a0000000000000000000000000000000000000000000000000000000008152600401610d5190613b95565b60405180910390fd5b610d65838383611c98565b505050565b600d54811115610daf576040517f08c379a0000000000000000000000000000000000000000000000000000000008152600401610da690613732565b60405180910390fd5b600160118381548110610dc557610dc4613bb5565b5b906000526020600020906003020160020160006101000a81548160ff0219169083151502179055508060118381548110610e0257610e01613bb5565b5b906000526020600020906003020160010181905550610e213083610be6565b7fab7c33ed6b76f0cc8ab554d58c5f2029850ebcdab11f7a23c327f43320b4eb4c610e4b83611256565b8383604051610e5c93929190613be4565b60405180910390a15050565b6000610e73836112dc565b8210610eb4576040517f08c379a0000000000000000000000000000000000000000000000000000000008152600401610eab90613c8d565b60405180910390fd5b600660008473ffffffffffffffffffffffffffffffffffffffff1673ffffffffffffffffffffffffffffffffffffffff168152602001908152602001600020600083815260200190815260200160002054905092915050565b60118181548110610f2157610f20613bb5565b5b906000526020600020906003020160020160009054906101000a900460ff16610f4957600080fd5b610f5c610f5582611256565b33836107d7565b600060118281548110610f7257610f71613bb5565b5b906000526020600020906003020160020160006101000a81548160ff021916908315150217905550600060118281548110610fb057610faf613bb5565b5b90600052602060002090600302016001018190555050565b610fe38383836040518060200160405280600081525061158f565b505050565b600d5481565b6000610ff8610cfd565b8210611039576040517f08c379a000000000000000000000000000000000000000000000000000000000815260040161103090613d1f565b60405180910390fd5b6008828154811061104d5761104c613bb5565b5b90600052602060002001549050919050565b6000600f54341461106f57600080fd5b600e5461107c600b611f91565b106110bc576040517f08c379a00000000000000000000000000000000000000000000000000000000081526004016110b390613d8b565b60405180910390fd5b600080600c60009054906101000a900473ffffffffffffffffffffffffffffffffffffffff1673ffffffffffffffffffffffffffffffffffffffff16346040516111059061391e565b60006040518083038185875af1925050503d8060008114611142576040519150601f19603f3d011682016040523d82523d6000602084013e611147565b606091505b50915091508161118c576040517f08c379a00000000000000000000000000000000000000000000000000000000081526004016111839061397f565b60405180910390fd5b6000611198600b611f91565b90506111a48582611f9f565b60006040518060600160405280838152602001600081526020016000151581525090506011819080600181540180825580915050600190039060005260206000209060030201600090919091909150600082015181600001556020820151816001015560408201518160020160006101000a81548160ff0219169083151502179055505050611233600b6121bc565b81945050505050919050565b6000600a60009054906101000a900460ff16905090565b600080611262836121d2565b9050600073ffffffffffffffffffffffffffffffffffffffff168173ffffffffffffffffffffffffffffffffffffffff16036112d3576040517f08c379a00000000000000000000000000000000000000000000000000000000081526004016112ca90613df7565b60405180910390fd5b80915050919050565b60008073ffffffffffffffffffffffffffffffffffffffff168273ffffffffffffffffffffffffffffffffffffffff160361134c576040517f08c379a000000000000000000000000000000000000000000000000000000000815260040161134390613e89565b60405180910390fd5b600360008373ffffffffffffffffffffffffffffffffffffffff1673ffffffffffffffffffffffffffffffffffffffff168152602001908152602001600020549050919050565b60105481565b601181815481106113a957600080fd5b90600052602060002090600302016000915090508060000154908060010154908060020160009054906101000a900460ff16905083565b600f5481565b6000806000601184815481106113ff576113fe613bb5565b5b9060005260206000209060030201600001546011858154811061142557611424613bb5565b5b9060005260206000209060030201600101546011868154811061144b5761144a613bb5565b5b906000526020600020906003020160020160009054906101000a900460ff169250925092509193909250565b600c60009054906101000a900473ffffffffffffffffffffffffffffffffffffffff1673ffffffffffffffffffffffffffffffffffffffff163373ffffffffffffffffffffffffffffffffffffffff16146114d157600080fd5b6114d961220f565b565b6060600180546114ea906139ce565b80601f0160208091040260200160405190810160405280929190818152602001828054611516906139ce565b80156115635780601f1061153857610100808354040283529160200191611563565b820191906000526020600020905b81548152906001019060200180831161154657829003601f168201915b5050505050905090565b61157f611578611b42565b8383612272565b5050565b600b8060000154905081565b6115a061159a611b42565b83611c03565b6115df576040517f08c379a00000000000000000000000000000000000000000000000000000000081526004016115d690613b95565b60405180910390fd5b6115eb848484846123de565b50505050565b6115fa81611256565b73ffffffffffffffffffffffffffffffffffffffff163373ffffffffffffffffffffffffffffffffffffffff1614611667576040517f08c379a000000000000000000000000000000000000000000000000000000000815260040161165e90613f1b565b60405180910390fd5b60006011828154811061167d5761167c613bb5565b5b906000526020600020906003020160020160006101000a81548160ff0219169083151502179055506000601182815481106116bb576116ba613bb5565b5b9060005260206000209060030201600101819055506116db30600061156d565b7fed11257e142eeb2c0b3836a0f6d36c5717b1750048e113fc22b96f3bd4176fd28160405161170a9190613139565b60405180910390a150565b606061172082611af7565b600061172a61243a565b9050600081511161174a5760405180602001604052806000815250611775565b8061175484612451565b604051602001611765929190613f77565b6040516020818303038152906040525b915050919050565b606061178761251f565b6000611793600b611f91565b67ffffffffffffffff8111156117ac576117ab6132c1565b5b6040519080825280602002602001820160405280156117da5781602001602082028036833780820191505090505b50905060005b6117ea600b611f91565b81101561185a576117fa81611256565b82828151811061180d5761180c613bb5565b5b602002602001019073ffffffffffffffffffffffffffffffffffffffff16908173ffffffffffffffffffffffffffffffffffffffff1681525050808061185290613f9b565b9150506117e0565b508091505090565b600e5481565b6000600560008473ffffffffffffffffffffffffffffffffffffffff1673ffffffffffffffffffffffffffffffffffffffff16815260200190815260200160002060008373ffffffffffffffffffffffffffffffffffffffff1673ffffffffffffffffffffffffffffffffffffffff16815260200190815260200160002060009054906101000a900460ff16905092915050565b60606000611909836112dc565b905060008167ffffffffffffffff811115611927576119266132c1565b5b60405190808252806020026020018201604052801561196057816020015b61194d612dca565b8152602001906001900390816119455790505b50905060005b82811015611a0a57600061197a8683610e68565b9050601181815481106119905761198f613bb5565b5b906000526020600020906003020160405180606001604052908160008201548152602001600182015481526020016002820160009054906101000a900460ff1615151515815250508383815181106119eb576119ea613bb5565b5b6020026020010181905250508080611a0290613f9b565b915050611966565b508092505050919050565b60007f80ac58cd000000000000000000000000000000000000000000000000000000007bffffffffffffffffffffffffffffffffffffffffffffffffffffffff1916827bffffffffffffffffffffffffffffffffffffffffffffffffffffffff19161480611ae057507f5b5e139f000000000000000000000000000000000000000000000000000000007bffffffffffffffffffffffffffffffffffffffffffffffffffffffff1916827bffffffffffffffffffffffffffffffffffffffffffffffffffffffff1916145b80611af05750611aef82612568565b5b9050919050565b611b00816125d2565b611b3f576040517f08c379a0000000000000000000000000000000000000000000000000000000008152600401611b3690613df7565b60405180910390fd5b50565b600033905090565b816004600083815260200190815260200160002060006101000a81548173ffffffffffffffffffffffffffffffffffffffff021916908373ffffffffffffffffffffffffffffffffffffffff160217905550808273ffffffffffffffffffffffffffffffffffffffff16611bbd83611256565b73ffffffffffffffffffffffffffffffffffffffff167f8c5be1e5ebec7d5bd14f71427d1e84f3dd0314c0f7b2291e5b200ac8c7c3b92560405160405180910390a45050565b600080611c0f83611256565b90508073ffffffffffffffffffffffffffffffffffffffff168473ffffffffffffffffffffffffffffffffffffffff161480611c515750611c508185611868565b5b80611c8f57508373ffffffffffffffffffffffffffffffffffffffff16611c7784610ba0565b73ffffffffffffffffffffffffffffffffffffffff16145b91505092915050565b8273ffffffffffffffffffffffffffffffffffffffff16611cb882611256565b73ffffffffffffffffffffffffffffffffffffffff1614611d0e576040517f08c379a0000000000000000000000000000000000000000000000000000000008152600401611d0590614055565b60405180910390fd5b600073ffffffffffffffffffffffffffffffffffffffff168273ffffffffffffffffffffffffffffffffffffffff1603611d7d576040517f08c379a0000000000000000000000000000000000000000000000000000000008152600401611d74906140e7565b60405180910390fd5b611d8a8383836001612613565b8273ffffffffffffffffffffffffffffffffffffffff16611daa82611256565b73ffffffffffffffffffffffffffffffffffffffff1614611e00576040517f08c379a0000000000000000000000000000000000000000000000000000000008152600401611df790614055565b60405180910390fd5b6004600082815260200190815260200160002060006101000a81549073ffffffffffffffffffffffffffffffffffffffff02191690556001600360008573ffffffffffffffffffffffffffffffffffffffff1673ffffffffffffffffffffffffffffffffffffffff168152602001908152602001600020600082825403925050819055506001600360008473ffffffffffffffffffffffffffffffffffffffff1673ffffffffffffffffffffffffffffffffffffffff16815260200190815260200160002060008282540192505081905550816002600083815260200190815260200160002060006101000a81548173ffffffffffffffffffffffffffffffffffffffff021916908373ffffffffffffffffffffffffffffffffffffffff160217905550808273ffffffffffffffffffffffffffffffffffffffff168473ffffffffffffffffffffffffffffffffffffffff167fddf252ad1be2c89b69c2b068fc378daa952ba7f163c4a11628f55a4df523b3ef60405160405180910390a4611f8c8383836001612771565b505050565b600081600001549050919050565b600073ffffffffffffffffffffffffffffffffffffffff168273ffffffffffffffffffffffffffffffffffffffff160361200e576040517f08c379a000000000000000000000000000000000000000000000000000000000815260040161200590614153565b60405180910390fd5b612017816125d2565b15612057576040517f08c379a000000000000000000000000000000000000000000000000000000000815260040161204e906141bf565b60405180910390fd5b612065600083836001612613565b61206e816125d2565b156120ae576040517f08c379a00000000000000000000000000000000000000000000000000000000081526004016120a5906141bf565b60405180910390fd5b6001600360008473ffffffffffffffffffffffffffffffffffffffff1673ffffffffffffffffffffffffffffffffffffffff16815260200190815260200160002060008282540192505081905550816002600083815260200190815260200160002060006101000a81548173ffffffffffffffffffffffffffffffffffffffff021916908373ffffffffffffffffffffffffffffffffffffffff160217905550808273ffffffffffffffffffffffffffffffffffffffff16600073ffffffffffffffffffffffffffffffffffffffff167fddf252ad1be2c89b69c2b068fc378daa952ba7f163c4a11628f55a4df523b3ef60405160405180910390a46121b8600083836001612771565b5050565b6001816000016000828254019250508190555050565b60006002600083815260200190815260200160002060009054906101000a900473ffffffffffffffffffffffffffffffffffffffff169050919050565b612217612777565b6001600a60006101000a81548160ff0219169083151502179055507f62e78cea01bee320cd4e420270b5ea74000d11b0c9f74754ebdbfc544b05a25861225b611b42565b60405161226891906130cf565b60405180910390a1565b8173ffffffffffffffffffffffffffffffffffffffff168373ffffffffffffffffffffffffffffffffffffffff16036122e0576040517f08c379a00000000000000000000000000000000000000000000000000000000081526004016122d79061422b565b60405180910390fd5b80600560008573ffffffffffffffffffffffffffffffffffffffff1673ffffffffffffffffffffffffffffffffffffffff16815260200190815260200160002060008473ffffffffffffffffffffffffffffffffffffffff1673ffffffffffffffffffffffffffffffffffffffff16815260200190815260200160002060006101000a81548160ff0219169083151502179055508173ffffffffffffffffffffffffffffffffffffffff168373ffffffffffffffffffffffffffffffffffffffff167f17307eab39ab6107e8899845ad3d59bd9653f200f220920489ca2b5937696c31836040516123d19190612fc6565b60405180910390a3505050565b6123e9848484611c98565b6123f5848484846127c1565b612434576040517f08c379a000000000000000000000000000000000000000000000000000000000815260040161242b906142bd565b60405180910390fd5b50505050565b606060405180602001604052806000815250905090565b60606000600161246084612948565b01905060008167ffffffffffffffff81111561247f5761247e6132c1565b5b6040519080825280601f01601f1916602001820160405280156124b15781602001600182028036833780820191505090505b509050600082602001820190505b600115612514578080600190039150507f3031323334353637383961626364656600000000000000000000000000000000600a86061a8153600a858161250857612507613859565b5b049450600085036124bf575b819350505050919050565b61252761123f565b612566576040517f08c379a000000000000000000000000000000000000000000000000000000000815260040161255d90614329565b60405180910390fd5b565b60007f01ffc9a7000000000000000000000000000000000000000000000000000000007bffffffffffffffffffffffffffffffffffffffffffffffffffffffff1916827bffffffffffffffffffffffffffffffffffffffffffffffffffffffff1916149050919050565b60008073ffffffffffffffffffffffffffffffffffffffff166125f4836121d2565b73ffffffffffffffffffffffffffffffffffffffff1614159050919050565b61261f84848484612a9b565b6001811115612663576040517f08c379a000000000000000000000000000000000000000000000000000000000815260040161265a906143bb565b60405180910390fd5b6000829050600073ffffffffffffffffffffffffffffffffffffffff168573ffffffffffffffffffffffffffffffffffffffff16036126aa576126a581612aa1565b6126e9565b8373ffffffffffffffffffffffffffffffffffffffff168573ffffffffffffffffffffffffffffffffffffffff16146126e8576126e78582612aea565b5b5b600073ffffffffffffffffffffffffffffffffffffffff168473ffffffffffffffffffffffffffffffffffffffff160361272b5761272681612c57565b61276a565b8473ffffffffffffffffffffffffffffffffffffffff168473ffffffffffffffffffffffffffffffffffffffff1614612769576127688482612d28565b5b5b5050505050565b50505050565b61277f61123f565b156127bf576040517f08c379a00000000000000000000000000000000000000000000000000000000081526004016127b690614427565b60405180910390fd5b565b60006127e28473ffffffffffffffffffffffffffffffffffffffff16612da7565b1561293b578373ffffffffffffffffffffffffffffffffffffffff1663150b7a0261280b611b42565b8786866040518563ffffffff1660e01b815260040161282d949392919061449c565b6020604051808303816000875af192505050801561286957506040513d601f19601f8201168201806040525081019061286691906144fd565b60015b6128eb573d8060008114612899576040519150601f19603f3d011682016040523d82523d6000602084013e61289e565b606091505b5060008151036128e3576040517f08c379a00000000000000000000000000000000000000000000000000000000081526004016128da906142bd565b60405180910390fd5b805181602001fd5b63150b7a0260e01b7bffffffffffffffffffffffffffffffffffffffffffffffffffffffff1916817bffffffffffffffffffffffffffffffffffffffffffffffffffffffff191614915050612940565b600190505b949350505050565b600080600090507a184f03e93ff9f4daa797ed6e38ed64bf6a1f01000000000000000083106129a6577a184f03e93ff9f4daa797ed6e38ed64bf6a1f010000000000000000838161299c5761299b613859565b5b0492506040810190505b6d04ee2d6d415b85acef810000000083106129e3576d04ee2d6d415b85acef810000000083816129d9576129d8613859565b5b0492506020810190505b662386f26fc100008310612a1257662386f26fc100008381612a0857612a07613859565b5b0492506010810190505b6305f5e1008310612a3b576305f5e1008381612a3157612a30613859565b5b0492506008810190505b6127108310612a60576127108381612a5657612a55613859565b5b0492506004810190505b60648310612a835760648381612a7957612a78613859565b5b0492506002810190505b600a8310612a92576001810190505b80915050919050565b50505050565b6008805490506009600083815260200190815260200160002081905550600881908060018154018082558091505060019003906000526020600020016000909190919091505550565b60006001612af7846112dc565b612b0191906138b9565b9050600060076000848152602001908152602001600020549050818114612be6576000600660008673ffffffffffffffffffffffffffffffffffffffff1673ffffffffffffffffffffffffffffffffffffffff168152602001908152602001600020600084815260200190815260200160002054905080600660008773ffffffffffffffffffffffffffffffffffffffff1673ffffffffffffffffffffffffffffffffffffffff168152602001908152602001600020600084815260200190815260200160002081905550816007600083815260200190815260200160002081905550505b6007600084815260200190815260200160002060009055600660008573ffffffffffffffffffffffffffffffffffffffff1673ffffffffffffffffffffffffffffffffffffffff16815260200190815260200160002060008381526020019081526020016000206000905550505050565b60006001600880549050612c6b91906138b9565b9050600060096000848152602001908152602001600020549050600060088381548110612c9b57612c9a613bb5565b5b906000526020600020015490508060088381548110612cbd57612cbc613bb5565b5b906000526020600020018190555081600960008381526020019081526020016000208190555060096000858152602001908152602001600020600090556008805480612d0c57612d0b61452a565b5b6001900381819060005260206000200160009055905550505050565b6000612d33836112dc565b905081600660008573ffffffffffffffffffffffffffffffffffffffff1673ffffffffffffffffffffffffffffffffffffffff168152602001908152602001600020600083815260200190815260200160002081905550806007600084815260200190815260200160002081905550505050565b6000808273ffffffffffffffffffffffffffffffffffffffff163b119050919050565b604051806060016040528060008152602001600081526020016000151581525090565b6000604051905090565b600080fd5b600080fd5b600073ffffffffffffffffffffffffffffffffffffffff82169050919050565b6000612e2c82612e01565b9050919050565b612e3c81612e21565b8114612e4757600080fd5b50565b600081359050612e5981612e33565b92915050565b6000612e6a82612e01565b9050919050565b612e7a81612e5f565b8114612e8557600080fd5b50565b600081359050612e9781612e71565b92915050565b6000819050919050565b612eb081612e9d565b8114612ebb57600080fd5b50565b600081359050612ecd81612ea7565b92915050565b600080600060608486031215612eec57612eeb612df7565b5b6000612efa86828701612e4a565b9350506020612f0b86828701612e88565b9250506040612f1c86828701612ebe565b9150509250925092565b60007fffffffff0000000000000000000000000000000000000000000000000000000082169050919050565b612f5b81612f26565b8114612f6657600080fd5b50565b600081359050612f7881612f52565b92915050565b600060208284031215612f9457612f93612df7565b5b6000612fa284828501612f69565b91505092915050565b60008115159050919050565b612fc081612fab565b82525050565b6000602082019050612fdb6000830184612fb7565b92915050565b600081519050919050565b600082825260208201905092915050565b60005b8381101561301b578082015181840152602081019050613000565b60008484015250505050565b6000601f19601f8301169050919050565b600061304382612fe1565b61304d8185612fec565b935061305d818560208601612ffd565b61306681613027565b840191505092915050565b6000602082019050818103600083015261308b8184613038565b905092915050565b6000602082840312156130a9576130a8612df7565b5b60006130b784828501612ebe565b91505092915050565b6130c981612e5f565b82525050565b60006020820190506130e460008301846130c0565b92915050565b6000806040838503121561310157613100612df7565b5b600061310f85828601612e88565b925050602061312085828601612ebe565b9150509250929050565b61313381612e9d565b82525050565b600060208201905061314e600083018461312a565b92915050565b60008060006060848603121561316d5761316c612df7565b5b600061317b86828701612e88565b935050602061318c86828701612e88565b925050604061319d86828701612ebe565b9150509250925092565b600080604083850312156131be576131bd612df7565b5b60006131cc85828601612ebe565b92505060206131dd85828601612ebe565b9150509250929050565b6000602082840312156131fd576131fc612df7565b5b600061320b84828501612e88565b91505092915050565b6000606082019050613229600083018661312a565b613236602083018561312a565b6132436040830184612fb7565b949350505050565b61325481612fab565b811461325f57600080fd5b50565b6000813590506132718161324b565b92915050565b6000806040838503121561328e5761328d612df7565b5b600061329c85828601612e88565b92505060206132ad85828601613262565b9150509250929050565b600080fd5b600080fd5b7f4e487b7100000000000000000000000000000000000000000000000000000000600052604160045260246000fd5b6132f982613027565b810181811067ffffffffffffffff82111715613318576133176132c1565b5b80604052505050565b600061332b612ded565b905061333782826132f0565b919050565b600067ffffffffffffffff821115613357576133566132c1565b5b61336082613027565b9050602081019050919050565b82818337600083830152505050565b600061338f61338a8461333c565b613321565b9050828152602081018484840111156133ab576133aa6132bc565b5b6133b684828561336d565b509392505050565b600082601f8301126133d3576133d26132b7565b5b81356133e384826020860161337c565b91505092915050565b6000806000806080858703121561340657613405612df7565b5b600061341487828801612e88565b945050602061342587828801612e88565b935050604061343687828801612ebe565b925050606085013567ffffffffffffffff81111561345757613456612dfc565b5b613463878288016133be565b91505092959194509250565b600081519050919050565b600082825260208201905092915050565b6000819050602082019050919050565b6134a481612e5f565b82525050565b60006134b6838361349b565b60208301905092915050565b6000602082019050919050565b60006134da8261346f565b6134e4818561347a565b93506134ef8361348b565b8060005b8381101561352057815161350788826134aa565b9750613512836134c2565b9250506001810190506134f3565b5085935050505092915050565b6000602082019050818103600083015261354781846134cf565b905092915050565b6000806040838503121561356657613565612df7565b5b600061357485828601612e88565b925050602061358585828601612e88565b9150509250929050565b600081519050919050565b600082825260208201905092915050565b6000819050602082019050919050565b6135c481612e9d565b82525050565b6135d381612fab565b82525050565b6060820160008201516135ef60008501826135bb565b50602082015161360260208501826135bb565b50604082015161361560408501826135ca565b50505050565b600061362783836135d9565b60608301905092915050565b6000602082019050919050565b600061364b8261358f565b613655818561359a565b9350613660836135ab565b8060005b83811015613691578151613678888261361b565b975061368383613633565b925050600181019050613664565b5085935050505092915050565b600060208201905081810360008301526136b88184613640565b905092915050565b7f4d6178207072696365207472616e73666572206c696d6974207265616368656460008201527f2e00000000000000000000000000000000000000000000000000000000000000602082015250565b600061371c602183612fec565b9150613727826136c0565b604082019050919050565b6000602082019050818103600083015261374b8161370f565b9050919050565b6000819050919050565b600061377761377261376d84612e01565b613752565b612e01565b9050919050565b60006137898261375c565b9050919050565b600061379b8261377e565b9050919050565b6137ab81613790565b82525050565b60006060820190506137c660008301866137a2565b6137d360208301856130c0565b6137e0604083018461312a565b949350505050565b7f4e487b7100000000000000000000000000000000000000000000000000000000600052601160045260246000fd5b600061382282612e9d565b915061382d83612e9d565b925082820261383b81612e9d565b91508282048414831517613852576138516137e8565b5b5092915050565b7f4e487b7100000000000000000000000000000000000000000000000000000000600052601260045260246000fd5b600061389382612e9d565b915061389e83612e9d565b9250826138ae576138ad613859565b5b828204905092915050565b60006138c482612e9d565b91506138cf83612e9d565b92508282039050818111156138e7576138e66137e8565b5b92915050565b600081905092915050565b50565b60006139086000836138ed565b9150613913826138f8565b600082019050919050565b6000613929826138fb565b9150819050919050565b7f4661696c656420746f2073656e64204574686572000000000000000000000000600082015250565b6000613969601483612fec565b915061397482613933565b602082019050919050565b600060208201905081810360008301526139988161395c565b9050919050565b7f4e487b7100000000000000000000000000000000000000000000000000000000600052602260045260246000fd5b600060028204905060018216806139e657607f821691505b6020821081036139f9576139f861399f565b5b50919050565b7f4552433732313a20617070726f76616c20746f2063757272656e74206f776e6560008201527f7200000000000000000000000000000000000000000000000000000000000000602082015250565b6000613a5b602183612fec565b9150613a66826139ff565b604082019050919050565b60006020820190508181036000830152613a8a81613a4e565b9050919050565b7f4552433732313a20617070726f76652063616c6c6572206973206e6f7420746f60008201527f6b656e206f776e6572206f7220617070726f76656420666f7220616c6c000000602082015250565b6000613aed603d83612fec565b9150613af882613a91565b604082019050919050565b60006020820190508181036000830152613b1c81613ae0565b9050919050565b7f4552433732313a2063616c6c6572206973206e6f7420746f6b656e206f776e6560008201527f72206f7220617070726f76656400000000000000000000000000000000000000602082015250565b6000613b7f602d83612fec565b9150613b8a82613b23565b604082019050919050565b60006020820190508181036000830152613bae81613b72565b9050919050565b7f4e487b7100000000000000000000000000000000000000000000000000000000600052603260045260246000fd5b6000606082019050613bf960008301866130c0565b613c06602083018561312a565b613c13604083018461312a565b949350505050565b7f455243373231456e756d657261626c653a206f776e657220696e646578206f7560008201527f74206f6620626f756e6473000000000000000000000000000000000000000000602082015250565b6000613c77602b83612fec565b9150613c8282613c1b565b604082019050919050565b60006020820190508181036000830152613ca681613c6a565b9050919050565b7f455243373231456e756d657261626c653a20676c6f62616c20696e646578206f60008201527f7574206f6620626f756e64730000000000000000000000000000000000000000602082015250565b6000613d09602c83612fec565b9150613d1482613cad565b604082019050919050565b60006020820190508181036000830152613d3881613cfc565b9050919050565b7f4e6f206d6f7265207469636b6574206c65667420666f722073616c6500000000600082015250565b6000613d75601c83612fec565b9150613d8082613d3f565b602082019050919050565b60006020820190508181036000830152613da481613d68565b9050919050565b7f4552433732313a20696e76616c696420746f6b656e2049440000000000000000600082015250565b6000613de1601883612fec565b9150613dec82613dab565b602082019050919050565b60006020820190508181036000830152613e1081613dd4565b9050919050565b7f4552433732313a2061646472657373207a65726f206973206e6f74206120766160008201527f6c6964206f776e65720000000000000000000000000000000000000000000000602082015250565b6000613e73602983612fec565b9150613e7e82613e17565b604082019050919050565b60006020820190508181036000830152613ea281613e66565b9050919050565b7f5468652073656e646572206973206e6f7420746865206f776e6572206f66207460008201527f6865207469636b65740000000000000000000000000000000000000000000000602082015250565b6000613f05602983612fec565b9150613f1082613ea9565b604082019050919050565b60006020820190508181036000830152613f3481613ef8565b9050919050565b600081905092915050565b6000613f5182612fe1565b613f5b8185613f3b565b9350613f6b818560208601612ffd565b80840191505092915050565b6000613f838285613f46565b9150613f8f8284613f46565b91508190509392505050565b6000613fa682612e9d565b91507fffffffffffffffffffffffffffffffffffffffffffffffffffffffffffffffff8203613fd857613fd76137e8565b5b600182019050919050565b7f4552433732313a207472616e736665722066726f6d20696e636f72726563742060008201527f6f776e6572000000000000000000000000000000000000000000000000000000602082015250565b600061403f602583612fec565b915061404a82613fe3565b604082019050919050565b6000602082019050818103600083015261406e81614032565b9050919050565b7f4552433732313a207472616e7366657220746f20746865207a65726f2061646460008201527f7265737300000000000000000000000000000000000000000000000000000000602082015250565b60006140d1602483612fec565b91506140dc82614075565b604082019050919050565b60006020820190508181036000830152614100816140c4565b9050919050565b7f4552433732313a206d696e7420746f20746865207a65726f2061646472657373600082015250565b600061413d602083612fec565b915061414882614107565b602082019050919050565b6000602082019050818103600083015261416c81614130565b9050919050565b7f4552433732313a20746f6b656e20616c7265616479206d696e74656400000000600082015250565b60006141a9601c83612fec565b91506141b482614173565b602082019050919050565b600060208201905081810360008301526141d88161419c565b9050919050565b7f4552433732313a20617070726f766520746f2063616c6c657200000000000000600082015250565b6000614215601983612fec565b9150614220826141df565b602082019050919050565b6000602082019050818103600083015261424481614208565b9050919050565b7f4552433732313a207472616e7366657220746f206e6f6e20455243373231526560008201527f63656976657220696d706c656d656e7465720000000000000000000000000000602082015250565b60006142a7603283612fec565b91506142b28261424b565b604082019050919050565b600060208201905081810360008301526142d68161429a565b9050919050565b7f5061757361626c653a206e6f7420706175736564000000000000000000000000600082015250565b6000614313601483612fec565b915061431e826142dd565b602082019050919050565b6000602082019050818103600083015261434281614306565b9050919050565b7f455243373231456e756d657261626c653a20636f6e736563757469766520747260008201527f616e7366657273206e6f7420737570706f727465640000000000000000000000602082015250565b60006143a5603583612fec565b91506143b082614349565b604082019050919050565b600060208201905081810360008301526143d481614398565b9050919050565b7f5061757361626c653a2070617573656400000000000000000000000000000000600082015250565b6000614411601083612fec565b915061441c826143db565b602082019050919050565b6000602082019050818103600083015261444081614404565b9050919050565b600081519050919050565b600082825260208201905092915050565b600061446e82614447565b6144788185614452565b9350614488818560208601612ffd565b61449181613027565b840191505092915050565b60006080820190506144b160008301876130c0565b6144be60208301866130c0565b6144cb604083018561312a565b81810360608301526144dd8184614463565b905095945050505050565b6000815190506144f781612f52565b92915050565b60006020828403121561451357614512612df7565b5b6000614521848285016144e8565b91505092915050565b7f4e487b7100000000000000000000000000000000000000000000000000000000600052603160045260246000fdfea26469706673582212206f7e532418d65141057b634f2b15ce51d373fcb3ef7d3de39b9375ed0ab46b4464736f6c63430008120033",
  "linkReferences": {},
  "deployedLinkReferences": {}
}